{
  "_format": "hh-sol-artifact-1",
  "contractName": "MeanlyGiftNFT",
  "sourceName": "contracts/MeanlyGiftNFT.sol",
  "abi": [
    {
      "inputs": [
        {
          "internalType": "address",
          "name": "defaultAdmin",
          "type": "address"
        },
        {
          "internalType": "address",
          "name": "minter",
          "type": "address"
        }
      ],
      "stateMutability": "nonpayable",
      "type": "constructor"
    },
    {
      "inputs": [],
      "name": "AccessControlBadConfirmation",
      "type": "error"
    },
    {
      "inputs": [
        {
          "internalType": "address",
          "name": "account",
          "type": "address"
        },
        {
          "internalType": "bytes32",
          "name": "neededRole",
          "type": "bytes32"
        }
      ],
      "name": "AccessControlUnauthorizedAccount",
      "type": "error"
    },
    {
      "inputs": [
        {
          "internalType": "address",
          "name": "sender",
          "type": "address"
        },
        {
          "internalType": "uint256",
          "name": "tokenId",
          "type": "uint256"
        },
        {
          "internalType": "address",
          "name": "owner",
          "type": "address"
        }
      ],
      "name": "ERC721IncorrectOwner",
      "type": "error"
    },
    {
      "inputs": [
        {
          "internalType": "address",
          "name": "operator",
          "type": "address"
        },
        {
          "internalType": "uint256",
          "name": "tokenId",
          "type": "uint256"
        }
      ],
      "name": "ERC721InsufficientApproval",
      "type": "error"
    },
    {
      "inputs": [
        {
          "internalType": "address",
          "name": "approver",
          "type": "address"
        }
      ],
      "name": "ERC721InvalidApprover",
      "type": "error"
    },
    {
      "inputs": [
        {
          "internalType": "address",
          "name": "operator",
          "type": "address"
        }
      ],
      "name": "ERC721InvalidOperator",
      "type": "error"
    },
    {
      "inputs": [
        {
          "internalType": "address",
          "name": "owner",
          "type": "address"
        }
      ],
      "name": "ERC721InvalidOwner",
      "type": "error"
    },
    {
      "inputs": [
        {
          "internalType": "address",
          "name": "receiver",
          "type": "address"
        }
      ],
      "name": "ERC721InvalidReceiver",
      "type": "error"
    },
    {
      "inputs": [
        {
          "internalType": "address",
          "name": "sender",
          "type": "address"
        }
      ],
      "name": "ERC721InvalidSender",
      "type": "error"
    },
    {
      "inputs": [
        {
          "internalType": "uint256",
          "name": "tokenId",
          "type": "uint256"
        }
      ],
      "name": "ERC721NonexistentToken",
      "type": "error"
    },
    {
      "inputs": [],
      "name": "EnforcedPause",
      "type": "error"
    },
    {
      "inputs": [],
      "name": "ExpectedPause",
      "type": "error"
    },
    {
      "anonymous": false,
      "inputs": [
        {
          "indexed": true,
          "internalType": "address",
          "name": "owner",
          "type": "address"
        },
        {
          "indexed": true,
          "internalType": "address",
          "name": "approved",
          "type": "address"
        },
        {
          "indexed": true,
          "internalType": "uint256",
          "name": "tokenId",
          "type": "uint256"
        }
      ],
      "name": "Approval",
      "type": "event"
    },
    {
      "anonymous": false,
      "inputs": [
        {
          "indexed": true,
          "internalType": "address",
          "name": "owner",
          "type": "address"
        },
        {
          "indexed": true,
          "internalType": "address",
          "name": "operator",
          "type": "address"
        },
        {
          "indexed": false,
          "internalType": "bool",
          "name": "approved",
          "type": "bool"
        }
      ],
      "name": "ApprovalForAll",
      "type": "event"
    },
    {
      "anonymous": false,
      "inputs": [
        {
          "indexed": false,
          "internalType": "uint256",
          "name": "_fromTokenId",
          "type": "uint256"
        },
        {
          "indexed": false,
          "internalType": "uint256",
          "name": "_toTokenId",
          "type": "uint256"
        }
      ],
      "name": "BatchMetadataUpdate",
      "type": "event"
    },
    {
      "anonymous": false,
      "inputs": [
        {
          "indexed": false,
          "internalType": "uint256",
          "name": "recipientsCount",
          "type": "uint256"
        }
      ],
      "name": "BatchMint",
      "type": "event"
    },
    {
      "anonymous": false,
      "inputs": [
        {
          "indexed": true,
          "internalType": "address",
          "name": "from",
          "type": "address"
        },
        {
          "indexed": true,
          "internalType": "uint256",
          "name": "tokenId",
          "type": "uint256"
        },
        {
          "indexed": false,
          "internalType": "string",
          "name": "reason",
          "type": "string"
        }
      ],
      "name": "BurnedWithReason",
      "type": "event"
    },
    {
      "anonymous": false,
      "inputs": [
        {
          "indexed": true,
          "internalType": "address",
          "name": "to",
          "type": "address"
        },
        {
          "indexed": true,
          "internalType": "uint256",
          "name": "tokenId",
          "type": "uint256"
        },
        {
          "indexed": false,
          "internalType": "string",
          "name": "uri",
          "type": "string"
        },
        {
          "indexed": false,
          "internalType": "string",
          "name": "reason",
          "type": "string"
        }
      ],
      "name": "GiftMinted",
      "type": "event"
    },
    {
      "anonymous": false,
      "inputs": [
        {
          "indexed": false,
          "internalType": "uint256",
          "name": "oldLimit",
          "type": "uint256"
        },
        {
          "indexed": false,
          "internalType": "uint256",
          "name": "newLimit",
          "type": "uint256"
        }
      ],
      "name": "MaxMintPerTxUpdated",
      "type": "event"
    },
    {
      "anonymous": false,
      "inputs": [
        {
          "indexed": false,
          "internalType": "uint256",
          "name": "_tokenId",
          "type": "uint256"
        }
      ],
      "name": "MetadataUpdate",
      "type": "event"
    },
    {
      "anonymous": false,
      "inputs": [
        {
          "indexed": true,
          "internalType": "address",
          "name": "account",
          "type": "address"
        }
      ],
      "name": "MinterAdded",
      "type": "event"
    },
    {
      "anonymous": false,
      "inputs": [
        {
          "indexed": true,
          "internalType": "address",
          "name": "account",
          "type": "address"
        }
      ],
      "name": "MinterRemoved",
      "type": "event"
    },
    {
      "anonymous": false,
      "inputs": [
        {
          "indexed": false,
          "internalType": "address",
          "name": "account",
          "type": "address"
        }
      ],
      "name": "Paused",
      "type": "event"
    },
    {
      "anonymous": false,
      "inputs": [
        {
          "indexed": true,
          "internalType": "bytes32",
          "name": "role",
          "type": "bytes32"
        },
        {
          "indexed": true,
          "internalType": "bytes32",
          "name": "previousAdminRole",
          "type": "bytes32"
        },
        {
          "indexed": true,
          "internalType": "bytes32",
          "name": "newAdminRole",
          "type": "bytes32"
        }
      ],
      "name": "RoleAdminChanged",
      "type": "event"
    },
    {
      "anonymous": false,
      "inputs": [
        {
          "indexed": true,
          "internalType": "bytes32",
          "name": "role",
          "type": "bytes32"
        },
        {
          "indexed": true,
          "internalType": "address",
          "name": "account",
          "type": "address"
        },
        {
          "indexed": true,
          "internalType": "address",
          "name": "sender",
          "type": "address"
        }
      ],
      "name": "RoleGranted",
      "type": "event"
    },
    {
      "anonymous": false,
      "inputs": [
        {
          "indexed": true,
          "internalType": "bytes32",
          "name": "role",
          "type": "bytes32"
        },
        {
          "indexed": true,
          "internalType": "address",
          "name": "account",
          "type": "address"
        },
        {
          "indexed": true,
          "internalType": "address",
          "name": "sender",
          "type": "address"
        }
      ],
      "name": "RoleRevoked",
      "type": "event"
    },
    {
      "anonymous": false,
      "inputs": [
        {
          "indexed": true,
          "internalType": "address",
          "name": "from",
          "type": "address"
        },
        {
          "indexed": true,
          "internalType": "address",
          "name": "to",
          "type": "address"
        },
        {
          "indexed": true,
          "internalType": "uint256",
          "name": "tokenId",
          "type": "uint256"
        }
      ],
      "name": "Transfer",
      "type": "event"
    },
    {
      "anonymous": false,
      "inputs": [
        {
          "indexed": true,
          "internalType": "address",
          "name": "oldTreasury",
          "type": "address"
        },
        {
          "indexed": true,
          "internalType": "address",
          "name": "newTreasury",
          "type": "address"
        }
      ],
      "name": "TreasuryUpdated",
      "type": "event"
    },
    {
      "anonymous": false,
      "inputs": [
        {
          "indexed": false,
          "internalType": "address",
          "name": "account",
          "type": "address"
        }
      ],
      "name": "Unpaused",
      "type": "event"
    },
    {
      "inputs": [],
      "name": "DEFAULT_ADMIN_ROLE",
      "outputs": [
        {
          "internalType": "bytes32",
          "name": "",
          "type": "bytes32"
        }
      ],
      "stateMutability": "view",
      "type": "function"
    },
    {
      "inputs": [],
      "name": "MAX_BATCH_SIZE",
      "outputs": [
        {
          "internalType": "uint256",
          "name": "",
          "type": "uint256"
        }
      ],
      "stateMutability": "view",
      "type": "function"
    },
    {
      "inputs": [],
      "name": "MINTER_ROLE",
      "outputs": [
        {
          "internalType": "bytes32",
          "name": "",
          "type": "bytes32"
        }
      ],
      "stateMutability": "view",
      "type": "function"
    },
    {
      "inputs": [
        {
          "internalType": "address",
          "name": "account",
          "type": "address"
        }
      ],
      "name": "addMinter",
      "outputs": [],
      "stateMutability": "nonpayable",
      "type": "function"
    },
    {
      "inputs": [
        {
          "internalType": "address",
          "name": "to",
          "type": "address"
        },
        {
          "internalType": "uint256",
          "name": "tokenId",
          "type": "uint256"
        }
      ],
      "name": "approve",
      "outputs": [],
      "stateMutability": "nonpayable",
      "type": "function"
    },
    {
      "inputs": [
        {
          "internalType": "address",
          "name": "owner",
          "type": "address"
        }
      ],
      "name": "balanceOf",
      "outputs": [
        {
          "internalType": "uint256",
          "name": "",
          "type": "uint256"
        }
      ],
      "stateMutability": "view",
      "type": "function"
    },
    {
      "inputs": [
        {
          "internalType": "address[]",
          "name": "recipients",
          "type": "address[]"
        },
        {
          "internalType": "string[]",
          "name": "uris",
          "type": "string[]"
        },
        {
          "internalType": "string",
          "name": "reason",
          "type": "string"
        }
      ],
      "name": "batchMint",
      "outputs": [],
      "stateMutability": "nonpayable",
      "type": "function"
    },
    {
      "inputs": [
        {
          "internalType": "uint256",
          "name": "tokenId",
          "type": "uint256"
        }
      ],
      "name": "burn",
      "outputs": [],
      "stateMutability": "nonpayable",
      "type": "function"
    },
    {
      "inputs": [
        {
          "internalType": "uint256",
          "name": "tokenId",
          "type": "uint256"
        },
        {
          "internalType": "string",
          "name": "reason",
          "type": "string"
        }
      ],
      "name": "burnWithReason",
      "outputs": [],
      "stateMutability": "nonpayable",
      "type": "function"
    },
    {
      "inputs": [
        {
          "internalType": "uint256",
          "name": "tokenId",
          "type": "uint256"
        }
      ],
      "name": "getApproved",
      "outputs": [
        {
          "internalType": "address",
          "name": "",
          "type": "address"
        }
      ],
      "stateMutability": "view",
      "type": "function"
    },
    {
      "inputs": [
        {
          "internalType": "bytes32",
          "name": "role",
          "type": "bytes32"
        }
      ],
      "name": "getRoleAdmin",
      "outputs": [
        {
          "internalType": "bytes32",
          "name": "",
          "type": "bytes32"
        }
      ],
      "stateMutability": "view",
      "type": "function"
    },
    {
      "inputs": [
        {
          "internalType": "bytes32",
          "name": "role",
          "type": "bytes32"
        },
        {
          "internalType": "address",
          "name": "account",
          "type": "address"
        }
      ],
      "name": "grantRole",
      "outputs": [],
      "stateMutability": "nonpayable",
      "type": "function"
    },
    {
      "inputs": [
        {
          "internalType": "bytes32",
          "name": "role",
          "type": "bytes32"
        },
        {
          "internalType": "address",
          "name": "account",
          "type": "address"
        }
      ],
      "name": "hasRole",
      "outputs": [
        {
          "internalType": "bool",
          "name": "",
          "type": "bool"
        }
      ],
      "stateMutability": "view",
      "type": "function"
    },
    {
      "inputs": [
        {
          "internalType": "address",
          "name": "owner",
          "type": "address"
        },
        {
          "internalType": "address",
          "name": "operator",
          "type": "address"
        }
      ],
      "name": "isApprovedForAll",
      "outputs": [
        {
          "internalType": "bool",
          "name": "",
          "type": "bool"
        }
      ],
      "stateMutability": "view",
      "type": "function"
    },
    {
      "inputs": [
        {
          "internalType": "address",
          "name": "account",
          "type": "address"
        }
      ],
      "name": "isMinter",
      "outputs": [
        {
          "internalType": "bool",
          "name": "",
          "type": "bool"
        }
      ],
      "stateMutability": "view",
      "type": "function"
    },
    {
      "inputs": [],
      "name": "maxMintPerTx",
      "outputs": [
        {
          "internalType": "uint256",
          "name": "",
          "type": "uint256"
        }
      ],
      "stateMutability": "view",
      "type": "function"
    },
    {
      "inputs": [],
      "name": "name",
      "outputs": [
        {
          "internalType": "string",
          "name": "",
          "type": "string"
        }
      ],
      "stateMutability": "view",
      "type": "function"
    },
    {
      "inputs": [
        {
          "internalType": "uint256",
          "name": "tokenId",
          "type": "uint256"
        }
      ],
      "name": "ownerOf",
      "outputs": [
        {
          "internalType": "address",
          "name": "",
          "type": "address"
        }
      ],
      "stateMutability": "view",
      "type": "function"
    },
    {
      "inputs": [],
      "name": "pause",
      "outputs": [],
      "stateMutability": "nonpayable",
      "type": "function"
    },
    {
      "inputs": [],
      "name": "paused",
      "outputs": [
        {
          "internalType": "bool",
          "name": "",
          "type": "bool"
        }
      ],
      "stateMutability": "view",
      "type": "function"
    },
    {
      "inputs": [
        {
          "internalType": "address",
          "name": "account",
          "type": "address"
        }
      ],
      "name": "removeMinter",
      "outputs": [],
      "stateMutability": "nonpayable",
      "type": "function"
    },
    {
      "inputs": [
        {
          "internalType": "bytes32",
          "name": "role",
          "type": "bytes32"
        },
        {
          "internalType": "address",
          "name": "callerConfirmation",
          "type": "address"
        }
      ],
      "name": "renounceRole",
      "outputs": [],
      "stateMutability": "nonpayable",
      "type": "function"
    },
    {
      "inputs": [
        {
          "internalType": "bytes32",
          "name": "role",
          "type": "bytes32"
        },
        {
          "internalType": "address",
          "name": "account",
          "type": "address"
        }
      ],
      "name": "revokeRole",
      "outputs": [],
      "stateMutability": "nonpayable",
      "type": "function"
    },
    {
      "inputs": [
        {
          "internalType": "address",
          "name": "to",
          "type": "address"
        },
        {
          "internalType": "string",
          "name": "uri",
          "type": "string"
        },
        {
          "internalType": "string",
          "name": "reason",
          "type": "string"
        }
      ],
      "name": "safeMint",
      "outputs": [],
      "stateMutability": "nonpayable",
      "type": "function"
    },
    {
      "inputs": [
        {
          "internalType": "address",
          "name": "from",
          "type": "address"
        },
        {
          "internalType": "address",
          "name": "to",
          "type": "address"
        },
        {
          "internalType": "uint256",
          "name": "tokenId",
          "type": "uint256"
        }
      ],
      "name": "safeTransferFrom",
      "outputs": [],
      "stateMutability": "nonpayable",
      "type": "function"
    },
    {
      "inputs": [
        {
          "internalType": "address",
          "name": "from",
          "type": "address"
        },
        {
          "internalType": "address",
          "name": "to",
          "type": "address"
        },
        {
          "internalType": "uint256",
          "name": "tokenId",
          "type": "uint256"
        },
        {
          "internalType": "bytes",
          "name": "data",
          "type": "bytes"
        }
      ],
      "name": "safeTransferFrom",
      "outputs": [],
      "stateMutability": "nonpayable",
      "type": "function"
    },
    {
      "inputs": [
        {
          "internalType": "address",
          "name": "operator",
          "type": "address"
        },
        {
          "internalType": "bool",
          "name": "approved",
          "type": "bool"
        }
      ],
      "name": "setApprovalForAll",
      "outputs": [],
      "stateMutability": "nonpayable",
      "type": "function"
    },
    {
      "inputs": [
        {
          "internalType": "uint256",
          "name": "newLimit",
          "type": "uint256"
        }
      ],
      "name": "setMaxMintPerTx",
      "outputs": [],
      "stateMutability": "nonpayable",
      "type": "function"
    },
    {
      "inputs": [
        {
          "internalType": "address",
          "name": "newTreasury",
          "type": "address"
        }
      ],
      "name": "setTreasury",
      "outputs": [],
      "stateMutability": "nonpayable",
      "type": "function"
    },
    {
      "inputs": [
        {
          "internalType": "bytes4",
          "name": "interfaceId",
          "type": "bytes4"
        }
      ],
      "name": "supportsInterface",
      "outputs": [
        {
          "internalType": "bool",
          "name": "",
          "type": "bool"
        }
      ],
      "stateMutability": "view",
      "type": "function"
    },
    {
      "inputs": [],
      "name": "symbol",
      "outputs": [
        {
          "internalType": "string",
          "name": "",
          "type": "string"
        }
      ],
      "stateMutability": "view",
      "type": "function"
    },
    {
      "inputs": [
        {
          "internalType": "uint256",
          "name": "tokenId",
          "type": "uint256"
        }
      ],
      "name": "tokenURI",
      "outputs": [
        {
          "internalType": "string",
          "name": "",
          "type": "string"
        }
      ],
      "stateMutability": "view",
      "type": "function"
    },
    {
      "inputs": [
        {
          "internalType": "address",
          "name": "from",
          "type": "address"
        },
        {
          "internalType": "address",
          "name": "to",
          "type": "address"
        },
        {
          "internalType": "uint256",
          "name": "tokenId",
          "type": "uint256"
        }
      ],
      "name": "transferFrom",
      "outputs": [],
      "stateMutability": "nonpayable",
      "type": "function"
    },
    {
      "inputs": [],
      "name": "treasury",
      "outputs": [
        {
          "internalType": "address",
          "name": "",
          "type": "address"
        }
      ],
      "stateMutability": "view",
      "type": "function"
    },
    {
      "inputs": [],
      "name": "unpause",
      "outputs": [],
      "stateMutability": "nonpayable",
      "type": "function"
    }
  ],
  "bytecode": "0x60806040526032600a5534801562000015575f80fd5b506040516200447c3803806200447c83398181016040528101906200003b9190620002f0565b6040518060400160405280600b81526020017f4d65616e6c7920476966740000000000000000000000000000000000000000008152506040518060400160405280600381526020017f4d46540000000000000000000000000000000000000000000000000000000000815250815f9081620000b7919062000599565b508060019081620000c9919062000599565b505050620000e05f801b836200012460201b60201c565b50620001137f9f2df0fed2c77648de5860a4cc508cd0818c85b8b8a1ab4ceeef8d981c8956a6826200012460201b60201c565b50600160098190555050506200067d565b5f6200013783836200022060201b60201c565b6200021657600160075f8581526020019081526020015f205f015f8473ffffffffffffffffffffffffffffffffffffffff1673ffffffffffffffffffffffffffffffffffffffff1681526020019081526020015f205f6101000a81548160ff021916908315150217905550620001b26200028460201b60201c565b73ffffffffffffffffffffffffffffffffffffffff168273ffffffffffffffffffffffffffffffffffffffff16847f2f8788117e7eff1d82e926ec794901d17c78024a50270940304540a733656f0d60405160405180910390a4600190506200021a565b5f90505b92915050565b5f60075f8481526020019081526020015f205f015f8373ffffffffffffffffffffffffffffffffffffffff1673ffffffffffffffffffffffffffffffffffffffff1681526020019081526020015f205f9054906101000a900460ff16905092915050565b5f33905090565b5f80fd5b5f73ffffffffffffffffffffffffffffffffffffffff82169050919050565b5f620002ba826200028f565b9050919050565b620002cc81620002ae565b8114620002d7575f80fd5b50565b5f81519050620002ea81620002c1565b92915050565b5f80604083850312156200030957620003086200028b565b5b5f6200031885828601620002da565b92505060206200032b85828601620002da565b9150509250929050565b5f81519050919050565b7f4e487b71000000000000000000000000000000000000000000000000000000005f52604160045260245ffd5b7f4e487b71000000000000000000000000000000000000000000000000000000005f52602260045260245ffd5b5f6002820490506001821680620003b157607f821691505b602082108103620003c757620003c66200036c565b5b50919050565b5f819050815f5260205f209050919050565b5f6020601f8301049050919050565b5f82821b905092915050565b5f600883026200042b7fffffffffffffffffffffffffffffffffffffffffffffffffffffffffffffffff82620003ee565b620004378683620003ee565b95508019841693508086168417925050509392505050565b5f819050919050565b5f819050919050565b5f620004816200047b62000475846200044f565b62000458565b6200044f565b9050919050565b5f819050919050565b6200049c8362000461565b620004b4620004ab8262000488565b848454620003fa565b825550505050565b5f90565b620004ca620004bc565b620004d781848462000491565b505050565b5b81811015620004fe57620004f25f82620004c0565b600181019050620004dd565b5050565b601f8211156200054d576200051781620003cd565b6200052284620003df565b8101602085101562000532578190505b6200054a6200054185620003df565b830182620004dc565b50505b505050565b5f82821c905092915050565b5f6200056f5f198460080262000552565b1980831691505092915050565b5f6200058983836200055e565b9150826002028217905092915050565b620005a48262000335565b67ffffffffffffffff811115620005c057620005bf6200033f565b5b620005cc825462000399565b620005d982828562000502565b5f60209050601f8311600181146200060f575f8415620005fa578287015190505b6200060685826200057c565b86555062000675565b601f1984166200061f86620003cd565b5f5b82811015620006485784890151825560018201915060208501945060208101905062000621565b8683101562000668578489015162000664601f8916826200055e565b8355505b6001600288020188555050505b505050505050565b613df1806200068b5f395ff3fe608060405234801561000f575f80fd5b506004361061020f575f3560e01c806368b8f97711610123578063b88d4fde116100ab578063d547741f1161007a578063d547741f146105e5578063de7fcb1d14610601578063e985e9c51461061f578063eca81d421461064f578063f0f442601461066b5761020f565b8063b88d4fde1461055d578063c87b56dd14610579578063cfdbf254146105a9578063d5391393146105c75761020f565b806395d89b41116100f257806395d89b41146104b9578063983b2d56146104d7578063a217fddf146104f3578063a22cb46514610511578063aa271e1a1461052d5761020f565b806368b8f9771461043357806370a082311461044f5780638456cb591461047f57806391d14854146104895761020f565b80633092afd5116101a657806342966c681161017557806342966c681461038f5780635c975abb146103ab578063616cdb1e146103c957806361d027b3146103e55780636352211e146104035761020f565b80633092afd51461033157806336568abe1461034d5780633f4ba83a1461036957806342842e0e146103735761020f565b8063095ea7b3116101e2578063095ea7b3146102ad57806323b872dd146102c9578063248a9ca3146102e55780632f2ff15d146103155761020f565b806301ffc9a71461021357806306fdde0314610243578063081812fc14610261578063091273a714610291575b5f80fd5b61022d60048036038101906102289190612b18565b610687565b60405161023a9190612b5d565b60405180910390f35b61024b610698565b6040516102589190612c00565b60405180910390f35b61027b60048036038101906102769190612c53565b610727565b6040516102889190612cbd565b60405180910390f35b6102ab60048036038101906102a69190612e02565b610742565b005b6102c760048036038101906102c29190612e86565b6107a6565b005b6102e360048036038101906102de9190612ec4565b6107bc565b005b6102ff60048036038101906102fa9190612f47565b6108bb565b60405161030c9190612f81565b60405180910390f35b61032f600480360381019061032a9190612f9a565b6108d8565b005b61034b60048036038101906103469190612fd8565b6108fa565b005b61036760048036038101906103629190612f9a565b6109e5565b005b610371610a60565b005b61038d60048036038101906103889190612ec4565b610a77565b005b6103a960048036038101906103a49190612c53565b610a96565b005b6103b3610af7565b6040516103c09190612b5d565b60405180910390f35b6103e360048036038101906103de9190612c53565b610b0c565b005b6103ed610ba0565b6040516103fa9190612cbd565b60405180910390f35b61041d60048036038101906104189190612c53565b610bc5565b60405161042a9190612cbd565b60405180910390f35b61044d600480360381019061044891906130b5565b610bd6565b005b61046960048036038101906104649190612fd8565b610ee1565b6040516104769190613171565b60405180910390f35b610487610f97565b005b6104a3600480360381019061049e9190612f9a565b610fae565b6040516104b09190612b5d565b60405180910390f35b6104c1611012565b6040516104ce9190612c00565b60405180910390f35b6104f160048036038101906104ec9190612fd8565b6110a2565b005b6104fb61118d565b6040516105089190612f81565b60405180910390f35b61052b600480360381019061052691906131b4565b611193565b005b61054760048036038101906105429190612fd8565b6111a9565b6040516105549190612b5d565b60405180910390f35b61057760048036038101906105729190613290565b6111db565b005b610593600480360381019061058e9190612c53565b611200565b6040516105a09190612c00565b60405180910390f35b6105b1611212565b6040516105be9190613171565b60405180910390f35b6105cf611217565b6040516105dc9190612f81565b60405180910390f35b6105ff60048036038101906105fa9190612f9a565b61123b565b005b61060961125d565b6040516106169190613171565b60405180910390f35b61063960048036038101906106349190613310565b611263565b6040516106469190612b5d565b60405180910390f35b6106696004803603810190610664919061334e565b6112f1565b005b61068560048036038101906106809190612fd8565b611416565b005b5f6106918261154f565b9050919050565b60605f80546106a690613403565b80601f01602080910402602001604051908101604052809291908181526020018280546106d290613403565b801561071d5780601f106106f45761010080835404028352916020019161071d565b820191905f5260205f20905b81548152906001019060200180831161070057829003601f168201915b5050505050905090565b5f610731826115c8565b5061073b8261164e565b9050919050565b61074a611687565b610753826116c8565b813373ffffffffffffffffffffffffffffffffffffffff167fb9a7241fbe3f1a3ddd3f4f73c9381a36c1a0802ef83e2180537729639e04b48a8360405161079a9190612c00565b60405180910390a35050565b6107b882826107b361174a565b611751565b5050565b5f73ffffffffffffffffffffffffffffffffffffffff168273ffffffffffffffffffffffffffffffffffffffff160361082c575f6040517f64a0ae920000000000000000000000000000000000000000000000000000000081526004016108239190612cbd565b60405180910390fd5b5f61083f838361083a61174a565b611763565b90508373ffffffffffffffffffffffffffffffffffffffff168173ffffffffffffffffffffffffffffffffffffffff16146108b5578382826040517f64283d7b0000000000000000000000000000000000000000000000000000000081526004016108ac93929190613433565b60405180910390fd5b50505050565b5f60075f8381526020019081526020015f20600101549050919050565b6108e1826108bb565b6108ea81611780565b6108f48383611794565b50505050565b5f801b61090681611780565b3373ffffffffffffffffffffffffffffffffffffffff168273ffffffffffffffffffffffffffffffffffffffff1603610974576040517f08c379a000000000000000000000000000000000000000000000000000000000815260040161096b906134b2565b60405180910390fd5b61099e7f9f2df0fed2c77648de5860a4cc508cd0818c85b8b8a1ab4ceeef8d981c8956a68361123b565b8173ffffffffffffffffffffffffffffffffffffffff167fe94479a9f7e1952cc78f2d6baab678adc1b772d936c6583def489e524cb6669260405160405180910390a25050565b6109ed61174a565b73ffffffffffffffffffffffffffffffffffffffff168173ffffffffffffffffffffffffffffffffffffffff1614610a51576040517f6697b23200000000000000000000000000000000000000000000000000000000815260040160405180910390fd5b610a5b828261187e565b505050565b5f801b610a6c81611780565b610a74611968565b50565b610a9183838360405180602001604052805f8152506111db565b505050565b610a9e611687565b610aa7816116c8565b803373ffffffffffffffffffffffffffffffffffffffff167fb9a7241fbe3f1a3ddd3f4f73c9381a36c1a0802ef83e2180537729639e04b48a604051610aec9061351a565b60405180910390a350565b5f60085f9054906101000a900460ff16905090565b5f801b610b1881611780565b5f8211610b5a576040517f08c379a0000000000000000000000000000000000000000000000000000000008152600401610b5190613582565b60405180910390fd5b7f4c8f42e64ecaea3179b1790c1ae8c747d9ca87143dfc8ccf0e6392db5c3024f7600a5483604051610b8d9291906135a0565b60405180910390a181600a819055505050565b600b5f9054906101000a900473ffffffffffffffffffffffffffffffffffffffff1681565b5f610bcf826115c8565b9050919050565b7f9f2df0fed2c77648de5860a4cc508cd0818c85b8b8a1ab4ceeef8d981c8956a6610c0081611780565b610c08611687565b838390508686905014610c50576040517f08c379a0000000000000000000000000000000000000000000000000000000008152600401610c4790613611565b60405180910390fd5b60c8868690501115610c97576040517f08c379a0000000000000000000000000000000000000000000000000000000008152600401610c8e90613679565b60405180910390fd5b5f5b86869050811015610e9e575f73ffffffffffffffffffffffffffffffffffffffff16878783818110610cce57610ccd613697565b5b9050602002016020810190610ce39190612fd8565b73ffffffffffffffffffffffffffffffffffffffff1603610d39576040517f08c379a0000000000000000000000000000000000000000000000000000000008152600401610d309061370e565b60405180910390fd5b5f60095f815480929190610d4c90613759565b919050559050610d83888884818110610d6857610d67613697565b5b9050602002016020810190610d7d9190612fd8565b826119c9565b610df381878785818110610d9a57610d99613697565b5b9050602002810190610dac91906137ac565b8080601f0160208091040260200160405190810160405280939291908181526020018383808284375f81840152601f19601f820116905080830192505050505050506119e6565b80888884818110610e0757610e06613697565b5b9050602002016020810190610e1c9190612fd8565b73ffffffffffffffffffffffffffffffffffffffff167fe8dd76d3438da6b1ee2625e451455892c04070bfd96bf58533983edcbe7d1aff888886818110610e6657610e65613697565b5b9050602002810190610e7891906137ac565b88604051610e889392919061383a565b60405180910390a3508080600101915050610c99565b507fbddee7014f843553d21f168c53d4cc3524c178324b898e35dd888987af1fba6086869050604051610ed19190613171565b60405180910390a1505050505050565b5f8073ffffffffffffffffffffffffffffffffffffffff168273ffffffffffffffffffffffffffffffffffffffff1603610f52575f6040517f89c62b64000000000000000000000000000000000000000000000000000000008152600401610f499190612cbd565b60405180910390fd5b60035f8373ffffffffffffffffffffffffffffffffffffffff1673ffffffffffffffffffffffffffffffffffffffff1681526020019081526020015f20549050919050565b5f801b610fa381611780565b610fab611a40565b50565b5f60075f8481526020019081526020015f205f015f8373ffffffffffffffffffffffffffffffffffffffff1673ffffffffffffffffffffffffffffffffffffffff1681526020019081526020015f205f9054906101000a900460ff16905092915050565b60606001805461102190613403565b80601f016020809104026020016040519081016040528092919081815260200182805461104d90613403565b80156110985780601f1061106f57610100808354040283529160200191611098565b820191905f5260205f20905b81548152906001019060200180831161107b57829003601f168201915b5050505050905090565b5f801b6110ae81611780565b5f73ffffffffffffffffffffffffffffffffffffffff168273ffffffffffffffffffffffffffffffffffffffff160361111c576040517f08c379a0000000000000000000000000000000000000000000000000000000008152600401611113906138e1565b60405180910390fd5b6111467f9f2df0fed2c77648de5860a4cc508cd0818c85b8b8a1ab4ceeef8d981c8956a6836108d8565b8173ffffffffffffffffffffffffffffffffffffffff167f6ae172837ea30b801fbfcdd4108aa1d5bf8ff775444fd70256b44e6bf3dfc3f660405160405180910390a25050565b5f801b81565b6111a561119e61174a565b8383611aa2565b5050565b5f6111d47f9f2df0fed2c77648de5860a4cc508cd0818c85b8b8a1ab4ceeef8d981c8956a683610fae565b9050919050565b6111e68484846107bc565b6111fa6111f161174a565b85858585611c7b565b50505050565b606061120b82611e27565b9050919050565b60c881565b7f9f2df0fed2c77648de5860a4cc508cd0818c85b8b8a1ab4ceeef8d981c8956a681565b611244826108bb565b61124d81611780565b611257838361187e565b50505050565b600a5481565b5f60055f8473ffffffffffffffffffffffffffffffffffffffff1673ffffffffffffffffffffffffffffffffffffffff1681526020019081526020015f205f8373ffffffffffffffffffffffffffffffffffffffff1673ffffffffffffffffffffffffffffffffffffffff1681526020019081526020015f205f9054906101000a900460ff16905092915050565b7f9f2df0fed2c77648de5860a4cc508cd0818c85b8b8a1ab4ceeef8d981c8956a661131b81611780565b611323611687565b5f73ffffffffffffffffffffffffffffffffffffffff168473ffffffffffffffffffffffffffffffffffffffff1603611391576040517f08c379a00000000000000000000000000000000000000000000000000000000081526004016113889061370e565b60405180910390fd5b5f60095f8154809291906113a490613759565b9190505590506113b485826119c9565b6113be81856119e6565b808573ffffffffffffffffffffffffffffffffffffffff167fe8dd76d3438da6b1ee2625e451455892c04070bfd96bf58533983edcbe7d1aff86866040516114079291906138ff565b60405180910390a35050505050565b5f801b61142281611780565b5f73ffffffffffffffffffffffffffffffffffffffff168273ffffffffffffffffffffffffffffffffffffffff1603611490576040517f08c379a00000000000000000000000000000000000000000000000000000000081526004016114879061397e565b60405180910390fd5b8173ffffffffffffffffffffffffffffffffffffffff16600b5f9054906101000a900473ffffffffffffffffffffffffffffffffffffffff1673ffffffffffffffffffffffffffffffffffffffff167f4ab5be82436d353e61ca18726e984e561f5c1cc7c6d38b29d2553c790434705a60405160405180910390a381600b5f6101000a81548173ffffffffffffffffffffffffffffffffffffffff021916908373ffffffffffffffffffffffffffffffffffffffff1602179055505050565b5f7f7965db0b000000000000000000000000000000000000000000000000000000007bffffffffffffffffffffffffffffffffffffffffffffffffffffffff1916827bffffffffffffffffffffffffffffffffffffffffffffffffffffffff191614806115c157506115c082611ea3565b5b9050919050565b5f806115d383611f03565b90505f73ffffffffffffffffffffffffffffffffffffffff168173ffffffffffffffffffffffffffffffffffffffff160361164557826040517f7e27328900000000000000000000000000000000000000000000000000000000815260040161163c9190613171565b60405180910390fd5b80915050919050565b5f60045f8381526020019081526020015f205f9054906101000a900473ffffffffffffffffffffffffffffffffffffffff169050919050565b61168f610af7565b156116c6576040517fd93c066500000000000000000000000000000000000000000000000000000000815260040160405180910390fd5b565b5f6116d45f835f611763565b90505f73ffffffffffffffffffffffffffffffffffffffff168173ffffffffffffffffffffffffffffffffffffffff160361174657816040517f7e27328900000000000000000000000000000000000000000000000000000000815260040161173d9190613171565b60405180910390fd5b5050565b5f33905090565b61175e8383836001611f3c565b505050565b5f61176c611687565b6117778484846120fb565b90509392505050565b6117918161178c61174a565b612306565b50565b5f61179f8383610fae565b61187457600160075f8581526020019081526020015f205f015f8473ffffffffffffffffffffffffffffffffffffffff1673ffffffffffffffffffffffffffffffffffffffff1681526020019081526020015f205f6101000a81548160ff02191690831515021790555061181161174a565b73ffffffffffffffffffffffffffffffffffffffff168273ffffffffffffffffffffffffffffffffffffffff16847f2f8788117e7eff1d82e926ec794901d17c78024a50270940304540a733656f0d60405160405180910390a460019050611878565b5f90505b92915050565b5f6118898383610fae565b1561195e575f60075f8581526020019081526020015f205f015f8473ffffffffffffffffffffffffffffffffffffffff1673ffffffffffffffffffffffffffffffffffffffff1681526020019081526020015f205f6101000a81548160ff0219169083151502179055506118fb61174a565b73ffffffffffffffffffffffffffffffffffffffff168273ffffffffffffffffffffffffffffffffffffffff16847ff6391f5c32d9c69d2a47ea670b442974b53935d1edc7fd64eb21e047a839171b60405160405180910390a460019050611962565b5f90505b92915050565b611970612357565b5f60085f6101000a81548160ff0219169083151502179055507f5db9ee0a495bf2e6ff9c91a7834c1ba4fdd244a5e8aa4e537bd38aeae4b073aa6119b261174a565b6040516119bf9190612cbd565b60405180910390a1565b6119e2828260405180602001604052805f815250612397565b5050565b8060065f8481526020019081526020015f209081611a049190613b39565b507ff8e1a15aba9398e019f0b49df1a4fde98ee17ae345cb5f6b5e2c27f5033e8ce782604051611a349190613171565b60405180910390a15050565b611a48611687565b600160085f6101000a81548160ff0219169083151502179055507f62e78cea01bee320cd4e420270b5ea74000d11b0c9f74754ebdbfc544b05a258611a8b61174a565b604051611a989190612cbd565b60405180910390a1565b5f73ffffffffffffffffffffffffffffffffffffffff168373ffffffffffffffffffffffffffffffffffffffff1603611b12575f6040517fa9fbf51f000000000000000000000000000000000000000000000000000000008152600401611b099190612cbd565b60405180910390fd5b5f73ffffffffffffffffffffffffffffffffffffffff168273ffffffffffffffffffffffffffffffffffffffff1603611b8257816040517f5b08ba18000000000000000000000000000000000000000000000000000000008152600401611b799190612cbd565b60405180910390fd5b8060055f8573ffffffffffffffffffffffffffffffffffffffff1673ffffffffffffffffffffffffffffffffffffffff1681526020019081526020015f205f8473ffffffffffffffffffffffffffffffffffffffff1673ffffffffffffffffffffffffffffffffffffffff1681526020019081526020015f205f6101000a81548160ff0219169083151502179055508173ffffffffffffffffffffffffffffffffffffffff168373ffffffffffffffffffffffffffffffffffffffff167f17307eab39ab6107e8899845ad3d59bd9653f200f220920489ca2b5937696c3183604051611c6e9190612b5d565b60405180910390a3505050565b5f8373ffffffffffffffffffffffffffffffffffffffff163b1115611e20578273ffffffffffffffffffffffffffffffffffffffff1663150b7a02868685856040518563ffffffff1660e01b8152600401611cd99493929190613c5a565b6020604051808303815f875af1925050508015611d1457506040513d601f19601f82011682018060405250810190611d119190613cb8565b60015b611d95573d805f8114611d42576040519150601f19603f3d011682016040523d82523d5f602084013e611d47565b606091505b505f815103611d8d57836040517f64a0ae92000000000000000000000000000000000000000000000000000000008152600401611d849190612cbd565b60405180910390fd5b805160208201fd5b63150b7a0260e01b7bffffffffffffffffffffffffffffffffffffffffffffffffffffffff1916817bffffffffffffffffffffffffffffffffffffffffffffffffffffffff191614611e1e57836040517f64a0ae92000000000000000000000000000000000000000000000000000000008152600401611e159190612cbd565b60405180910390fd5b505b5050505050565b6060611e32826115c8565b505f611e3c6123ba565b90505f611e48846123d0565b90505f825103611e5c578092505050611e9e565b5f81511115611e90578181604051602001611e78929190613d1d565b60405160208183030381529060405292505050611e9e565b611e9984612471565b925050505b919050565b5f634906490660e01b7bffffffffffffffffffffffffffffffffffffffffffffffffffffffff1916827bffffffffffffffffffffffffffffffffffffffffffffffffffffffff19161480611efc5750611efb826124d7565b5b9050919050565b5f60025f8381526020019081526020015f205f9054906101000a900473ffffffffffffffffffffffffffffffffffffffff169050919050565b8080611f7457505f73ffffffffffffffffffffffffffffffffffffffff168273ffffffffffffffffffffffffffffffffffffffff1614155b156120a6575f611f83846115c8565b90505f73ffffffffffffffffffffffffffffffffffffffff168373ffffffffffffffffffffffffffffffffffffffff1614158015611fed57508273ffffffffffffffffffffffffffffffffffffffff168173ffffffffffffffffffffffffffffffffffffffff1614155b80156120005750611ffe8184611263565b155b1561204257826040517fa9fbf51f0000000000000000000000000000000000000000000000000000000081526004016120399190612cbd565b60405180910390fd5b81156120a457838573ffffffffffffffffffffffffffffffffffffffff168273ffffffffffffffffffffffffffffffffffffffff167f8c5be1e5ebec7d5bd14f71427d1e84f3dd0314c0f7b2291e5b200ac8c7c3b92560405160405180910390a45b505b8360045f8581526020019081526020015f205f6101000a81548173ffffffffffffffffffffffffffffffffffffffff021916908373ffffffffffffffffffffffffffffffffffffffff16021790555050505050565b5f8061210684611f03565b90505f73ffffffffffffffffffffffffffffffffffffffff168373ffffffffffffffffffffffffffffffffffffffff1614612147576121468184866125b8565b5b5f73ffffffffffffffffffffffffffffffffffffffff168173ffffffffffffffffffffffffffffffffffffffff16146121d2576121865f855f80611f3c565b600160035f8373ffffffffffffffffffffffffffffffffffffffff1673ffffffffffffffffffffffffffffffffffffffff1681526020019081526020015f205f82825403925050819055505b5f73ffffffffffffffffffffffffffffffffffffffff168573ffffffffffffffffffffffffffffffffffffffff161461225157600160035f8773ffffffffffffffffffffffffffffffffffffffff1673ffffffffffffffffffffffffffffffffffffffff1681526020019081526020015f205f82825401925050819055505b8460025f8681526020019081526020015f205f6101000a81548173ffffffffffffffffffffffffffffffffffffffff021916908373ffffffffffffffffffffffffffffffffffffffff160217905550838573ffffffffffffffffffffffffffffffffffffffff168273ffffffffffffffffffffffffffffffffffffffff167fddf252ad1be2c89b69c2b068fc378daa952ba7f163c4a11628f55a4df523b3ef60405160405180910390a4809150509392505050565b6123108282610fae565b6123535780826040517fe2517d3f00000000000000000000000000000000000000000000000000000000815260040161234a929190613d40565b60405180910390fd5b5050565b61235f610af7565b612395576040517f8dfc202b00000000000000000000000000000000000000000000000000000000815260040160405180910390fd5b565b6123a1838361267b565b6123b56123ac61174a565b5f858585611c7b565b505050565b606060405180602001604052805f815250905090565b606060065f8381526020019081526020015f2080546123ee90613403565b80601f016020809104026020016040519081016040528092919081815260200182805461241a90613403565b80156124655780601f1061243c57610100808354040283529160200191612465565b820191905f5260205f20905b81548152906001019060200180831161244857829003601f168201915b50505050509050919050565b606061247c826115c8565b505f6124866123ba565b90505f8151116124a45760405180602001604052805f8152506124cf565b806124ae8461276e565b6040516020016124bf929190613d1d565b6040516020818303038152906040525b915050919050565b5f7f80ac58cd000000000000000000000000000000000000000000000000000000007bffffffffffffffffffffffffffffffffffffffffffffffffffffffff1916827bffffffffffffffffffffffffffffffffffffffffffffffffffffffff191614806125a157507f5b5e139f000000000000000000000000000000000000000000000000000000007bffffffffffffffffffffffffffffffffffffffffffffffffffffffff1916827bffffffffffffffffffffffffffffffffffffffffffffffffffffffff1916145b806125b157506125b082612838565b5b9050919050565b6125c38383836128a1565b612676575f73ffffffffffffffffffffffffffffffffffffffff168373ffffffffffffffffffffffffffffffffffffffff160361263757806040517f7e27328900000000000000000000000000000000000000000000000000000000815260040161262e9190613171565b60405180910390fd5b81816040517f177e802f00000000000000000000000000000000000000000000000000000000815260040161266d929190613d67565b60405180910390fd5b505050565b5f73ffffffffffffffffffffffffffffffffffffffff168273ffffffffffffffffffffffffffffffffffffffff16036126eb575f6040517f64a0ae920000000000000000000000000000000000000000000000000000000081526004016126e29190612cbd565b60405180910390fd5b5f6126f783835f611763565b90505f73ffffffffffffffffffffffffffffffffffffffff168173ffffffffffffffffffffffffffffffffffffffff1614612769575f6040517f73c6ac6e0000000000000000000000000000000000000000000000000000000081526004016127609190612cbd565b60405180910390fd5b505050565b60605f600161277c84612961565b0190505f8167ffffffffffffffff81111561279a57612799612cde565b5b6040519080825280601f01601f1916602001820160405280156127cc5781602001600182028036833780820191505090505b5090505f82602083010190505b60011561282d578080600190039150507f3031323334353637383961626364656600000000000000000000000000000000600a86061a8153600a858161282257612821613d8e565b5b0494505f85036127d9575b819350505050919050565b5f7f01ffc9a7000000000000000000000000000000000000000000000000000000007bffffffffffffffffffffffffffffffffffffffffffffffffffffffff1916827bffffffffffffffffffffffffffffffffffffffffffffffffffffffff1916149050919050565b5f8073ffffffffffffffffffffffffffffffffffffffff168373ffffffffffffffffffffffffffffffffffffffff161415801561295857508273ffffffffffffffffffffffffffffffffffffffff168473ffffffffffffffffffffffffffffffffffffffff16148061291957506129188484611263565b5b8061295757508273ffffffffffffffffffffffffffffffffffffffff1661293f8361164e565b73ffffffffffffffffffffffffffffffffffffffff16145b5b90509392505050565b5f805f90507a184f03e93ff9f4daa797ed6e38ed64bf6a1f01000000000000000083106129bd577a184f03e93ff9f4daa797ed6e38ed64bf6a1f01000000000000000083816129b3576129b2613d8e565b5b0492506040810190505b6d04ee2d6d415b85acef810000000083106129fa576d04ee2d6d415b85acef810000000083816129f0576129ef613d8e565b5b0492506020810190505b662386f26fc100008310612a2957662386f26fc100008381612a1f57612a1e613d8e565b5b0492506010810190505b6305f5e1008310612a52576305f5e1008381612a4857612a47613d8e565b5b0492506008810190505b6127108310612a77576127108381612a6d57612a6c613d8e565b5b0492506004810190505b60648310612a9a5760648381612a9057612a8f613d8e565b5b0492506002810190505b600a8310612aa9576001810190505b80915050919050565b5f604051905090565b5f80fd5b5f80fd5b5f7fffffffff0000000000000000000000000000000000000000000000000000000082169050919050565b612af781612ac3565b8114612b01575f80fd5b50565b5f81359050612b1281612aee565b92915050565b5f60208284031215612b2d57612b2c612abb565b5b5f612b3a84828501612b04565b91505092915050565b5f8115159050919050565b612b5781612b43565b82525050565b5f602082019050612b705f830184612b4e565b92915050565b5f81519050919050565b5f82825260208201905092915050565b5f5b83811015612bad578082015181840152602081019050612b92565b5f8484015250505050565b5f601f19601f8301169050919050565b5f612bd282612b76565b612bdc8185612b80565b9350612bec818560208601612b90565b612bf581612bb8565b840191505092915050565b5f6020820190508181035f830152612c188184612bc8565b905092915050565b5f819050919050565b612c3281612c20565b8114612c3c575f80fd5b50565b5f81359050612c4d81612c29565b92915050565b5f60208284031215612c6857612c67612abb565b5b5f612c7584828501612c3f565b91505092915050565b5f73ffffffffffffffffffffffffffffffffffffffff82169050919050565b5f612ca782612c7e565b9050919050565b612cb781612c9d565b82525050565b5f602082019050612cd05f830184612cae565b92915050565b5f80fd5b5f80fd5b7f4e487b71000000000000000000000000000000000000000000000000000000005f52604160045260245ffd5b612d1482612bb8565b810181811067ffffffffffffffff82111715612d3357612d32612cde565b5b80604052505050565b5f612d45612ab2565b9050612d518282612d0b565b919050565b5f67ffffffffffffffff821115612d7057612d6f612cde565b5b612d7982612bb8565b9050602081019050919050565b828183375f83830152505050565b5f612da6612da184612d56565b612d3c565b905082815260208101848484011115612dc257612dc1612cda565b5b612dcd848285612d86565b509392505050565b5f82601f830112612de957612de8612cd6565b5b8135612df9848260208601612d94565b91505092915050565b5f8060408385031215612e1857612e17612abb565b5b5f612e2585828601612c3f565b925050602083013567ffffffffffffffff811115612e4657612e45612abf565b5b612e5285828601612dd5565b9150509250929050565b612e6581612c9d565b8114612e6f575f80fd5b50565b5f81359050612e8081612e5c565b92915050565b5f8060408385031215612e9c57612e9b612abb565b5b5f612ea985828601612e72565b9250506020612eba85828601612c3f565b9150509250929050565b5f805f60608486031215612edb57612eda612abb565b5b5f612ee886828701612e72565b9350506020612ef986828701612e72565b9250506040612f0a86828701612c3f565b9150509250925092565b5f819050919050565b612f2681612f14565b8114612f30575f80fd5b50565b5f81359050612f4181612f1d565b92915050565b5f60208284031215612f5c57612f5b612abb565b5b5f612f6984828501612f33565b91505092915050565b612f7b81612f14565b82525050565b5f602082019050612f945f830184612f72565b92915050565b5f8060408385031215612fb057612faf612abb565b5b5f612fbd85828601612f33565b9250506020612fce85828601612e72565b9150509250929050565b5f60208284031215612fed57612fec612abb565b5b5f612ffa84828501612e72565b91505092915050565b5f80fd5b5f80fd5b5f8083601f8401126130205761301f612cd6565b5b8235905067ffffffffffffffff81111561303d5761303c613003565b5b60208301915083602082028301111561305957613058613007565b5b9250929050565b5f8083601f84011261307557613074612cd6565b5b8235905067ffffffffffffffff81111561309257613091613003565b5b6020830191508360208202830111156130ae576130ad613007565b5b9250929050565b5f805f805f606086880312156130ce576130cd612abb565b5b5f86013567ffffffffffffffff8111156130eb576130ea612abf565b5b6130f78882890161300b565b9550955050602086013567ffffffffffffffff81111561311a57613119612abf565b5b61312688828901613060565b9350935050604086013567ffffffffffffffff81111561314957613148612abf565b5b61315588828901612dd5565b9150509295509295909350565b61316b81612c20565b82525050565b5f6020820190506131845f830184613162565b92915050565b61319381612b43565b811461319d575f80fd5b50565b5f813590506131ae8161318a565b92915050565b5f80604083850312156131ca576131c9612abb565b5b5f6131d785828601612e72565b92505060206131e8858286016131a0565b9150509250929050565b5f67ffffffffffffffff82111561320c5761320b612cde565b5b61321582612bb8565b9050602081019050919050565b5f61323461322f846131f2565b612d3c565b9050828152602081018484840111156132505761324f612cda565b5b61325b848285612d86565b509392505050565b5f82601f83011261327757613276612cd6565b5b8135613287848260208601613222565b91505092915050565b5f805f80608085870312156132a8576132a7612abb565b5b5f6132b587828801612e72565b94505060206132c687828801612e72565b93505060406132d787828801612c3f565b925050606085013567ffffffffffffffff8111156132f8576132f7612abf565b5b61330487828801613263565b91505092959194509250565b5f806040838503121561332657613325612abb565b5b5f61333385828601612e72565b925050602061334485828601612e72565b9150509250929050565b5f805f6060848603121561336557613364612abb565b5b5f61337286828701612e72565b935050602084013567ffffffffffffffff81111561339357613392612abf565b5b61339f86828701612dd5565b925050604084013567ffffffffffffffff8111156133c0576133bf612abf565b5b6133cc86828701612dd5565b9150509250925092565b7f4e487b71000000000000000000000000000000000000000000000000000000005f52602260045260245ffd5b5f600282049050600182168061341a57607f821691505b60208210810361342d5761342c6133d6565b5b50919050565b5f6060820190506134465f830186612cae565b6134536020830185613162565b6134606040830184612cae565b949350505050565b7f4d65616e6c793a2063616e6e6f742072656d6f766520796f757273656c6600005f82015250565b5f61349c601e83612b80565b91506134a782613468565b602082019050919050565b5f6020820190508181035f8301526134c981613490565b9050919050565b7f6d616e75616c206275726e0000000000000000000000000000000000000000005f82015250565b5f613504600b83612b80565b915061350f826134d0565b602082019050919050565b5f6020820190508181035f830152613531816134f8565b9050919050565b7f4d65616e6c793a206c696d6974206d757374206265203e2030000000000000005f82015250565b5f61356c601983612b80565b915061357782613538565b602082019050919050565b5f6020820190508181035f83015261359981613560565b9050919050565b5f6040820190506135b35f830185613162565b6135c06020830184613162565b9392505050565b7f4d65616e6c793a206c656e677468206d69736d617463680000000000000000005f82015250565b5f6135fb601783612b80565b9150613606826135c7565b602082019050919050565b5f6020820190508181035f830152613628816135ef565b9050919050565b7f4d65616e6c793a20626174636820746f6f206c617267650000000000000000005f82015250565b5f613663601783612b80565b915061366e8261362f565b602082019050919050565b5f6020820190508181035f83015261369081613657565b9050919050565b7f4e487b71000000000000000000000000000000000000000000000000000000005f52603260045260245ffd5b7f4d65616e6c793a206d696e7420746f20746865207a65726f20616464726573735f82015250565b5f6136f8602083612b80565b9150613703826136c4565b602082019050919050565b5f6020820190508181035f830152613725816136ec565b9050919050565b7f4e487b71000000000000000000000000000000000000000000000000000000005f52601160045260245ffd5b5f61376382612c20565b91507fffffffffffffffffffffffffffffffffffffffffffffffffffffffffffffffff82036137955761379461372c565b5b600182019050919050565b5f80fd5b5f80fd5b5f80fd5b5f80833560016020038436030381126137c8576137c76137a0565b5b80840192508235915067ffffffffffffffff8211156137ea576137e96137a4565b5b602083019250600182023603831315613806576138056137a8565b5b509250929050565b5f6138198385612b80565b9350613826838584612d86565b61382f83612bb8565b840190509392505050565b5f6040820190508181035f83015261385381858761380e565b905081810360208301526138678184612bc8565b9050949350505050565b7f4d65616e6c793a206d696e74657220697320746865207a65726f2061646472655f8201527f7373000000000000000000000000000000000000000000000000000000000000602082015250565b5f6138cb602283612b80565b91506138d682613871565b604082019050919050565b5f6020820190508181035f8301526138f8816138bf565b9050919050565b5f6040820190508181035f8301526139178185612bc8565b9050818103602083015261392b8184612bc8565b90509392505050565b7f4d65616e6c793a207472656173757279206973207a65726f20616464726573735f82015250565b5f613968602083612b80565b915061397382613934565b602082019050919050565b5f6020820190508181035f8301526139958161395c565b9050919050565b5f819050815f5260205f209050919050565b5f6020601f8301049050919050565b5f82821b905092915050565b5f600883026139f87fffffffffffffffffffffffffffffffffffffffffffffffffffffffffffffffff826139bd565b613a0286836139bd565b95508019841693508086168417925050509392505050565b5f819050919050565b5f613a3d613a38613a3384612c20565b613a1a565b612c20565b9050919050565b5f819050919050565b613a5683613a23565b613a6a613a6282613a44565b8484546139c9565b825550505050565b5f90565b613a7e613a72565b613a89818484613a4d565b505050565b5b81811015613aac57613aa15f82613a76565b600181019050613a8f565b5050565b601f821115613af157613ac28161399c565b613acb846139ae565b81016020851015613ada578190505b613aee613ae6856139ae565b830182613a8e565b50505b505050565b5f82821c905092915050565b5f613b115f1984600802613af6565b1980831691505092915050565b5f613b298383613b02565b9150826002028217905092915050565b613b4282612b76565b67ffffffffffffffff811115613b5b57613b5a612cde565b5b613b658254613403565b613b70828285613ab0565b5f60209050601f831160018114613ba1575f8415613b8f578287015190505b613b998582613b1e565b865550613c00565b601f198416613baf8661399c565b5f5b82811015613bd657848901518255600182019150602085019450602081019050613bb1565b86831015613bf35784890151613bef601f891682613b02565b8355505b6001600288020188555050505b505050505050565b5f81519050919050565b5f82825260208201905092915050565b5f613c2c82613c08565b613c368185613c12565b9350613c46818560208601612b90565b613c4f81612bb8565b840191505092915050565b5f608082019050613c6d5f830187612cae565b613c7a6020830186612cae565b613c876040830185613162565b8181036060830152613c998184613c22565b905095945050505050565b5f81519050613cb281612aee565b92915050565b5f60208284031215613ccd57613ccc612abb565b5b5f613cda84828501613ca4565b91505092915050565b5f81905092915050565b5f613cf782612b76565b613d018185613ce3565b9350613d11818560208601612b90565b80840191505092915050565b5f613d288285613ced565b9150613d348284613ced565b91508190509392505050565b5f604082019050613d535f830185612cae565b613d606020830184612f72565b9392505050565b5f604082019050613d7a5f830185612cae565b613d876020830184613162565b9392505050565b7f4e487b71000000000000000000000000000000000000000000000000000000005f52601260045260245ffdfea2646970667358221220a1b814f0ea2cb20b13876fde7ae5da14c26e365d49b5ddc7e0f7d241bd75d79164736f6c63430008180033",
  "linkReferences": {},
  "deployedLinkReferences": {}
}