{
  "_format": "hh-sol-artifact-1",
  "contractName": "MeanlyCoin",
  "sourceName": "contracts/MeanlyCoin.sol",
  "abi": [
    {
      "inputs": [
        {
          "internalType": "address",
          "name": "defaultAdmin",
          "type": "address"
        },
        {
          "internalType": "address",
          "name": "minter",
          "type": "address"
        }
      ],
      "stateMutability": "nonpayable",
      "type": "constructor"
    },
    {
      "inputs": [],
      "name": "AccessControlBadConfirmation",
      "type": "error"
    },
    {
      "inputs": [
        {
          "internalType": "address",
          "name": "account",
          "type": "address"
        },
        {
          "internalType": "bytes32",
          "name": "neededRole",
          "type": "bytes32"
        }
      ],
      "name": "AccessControlUnauthorizedAccount",
      "type": "error"
    },
    {
      "inputs": [],
      "name": "ECDSAInvalidSignature",
      "type": "error"
    },
    {
      "inputs": [
        {
          "internalType": "uint256",
          "name": "length",
          "type": "uint256"
        }
      ],
      "name": "ECDSAInvalidSignatureLength",
      "type": "error"
    },
    {
      "inputs": [
        {
          "internalType": "bytes32",
          "name": "s",
          "type": "bytes32"
        }
      ],
      "name": "ECDSAInvalidSignatureS",
      "type": "error"
    },
    {
      "inputs": [
        {
          "internalType": "address",
          "name": "spender",
          "type": "address"
        },
        {
          "internalType": "uint256",
          "name": "allowance",
          "type": "uint256"
        },
        {
          "internalType": "uint256",
          "name": "needed",
          "type": "uint256"
        }
      ],
      "name": "ERC20InsufficientAllowance",
      "type": "error"
    },
    {
      "inputs": [
        {
          "internalType": "address",
          "name": "sender",
          "type": "address"
        },
        {
          "internalType": "uint256",
          "name": "balance",
          "type": "uint256"
        },
        {
          "internalType": "uint256",
          "name": "needed",
          "type": "uint256"
        }
      ],
      "name": "ERC20InsufficientBalance",
      "type": "error"
    },
    {
      "inputs": [
        {
          "internalType": "address",
          "name": "approver",
          "type": "address"
        }
      ],
      "name": "ERC20InvalidApprover",
      "type": "error"
    },
    {
      "inputs": [
        {
          "internalType": "address",
          "name": "receiver",
          "type": "address"
        }
      ],
      "name": "ERC20InvalidReceiver",
      "type": "error"
    },
    {
      "inputs": [
        {
          "internalType": "address",
          "name": "sender",
          "type": "address"
        }
      ],
      "name": "ERC20InvalidSender",
      "type": "error"
    },
    {
      "inputs": [
        {
          "internalType": "address",
          "name": "spender",
          "type": "address"
        }
      ],
      "name": "ERC20InvalidSpender",
      "type": "error"
    },
    {
      "inputs": [
        {
          "internalType": "uint256",
          "name": "deadline",
          "type": "uint256"
        }
      ],
      "name": "ERC2612ExpiredSignature",
      "type": "error"
    },
    {
      "inputs": [
        {
          "internalType": "address",
          "name": "signer",
          "type": "address"
        },
        {
          "internalType": "address",
          "name": "owner",
          "type": "address"
        }
      ],
      "name": "ERC2612InvalidSigner",
      "type": "error"
    },
    {
      "inputs": [],
      "name": "EnforcedPause",
      "type": "error"
    },
    {
      "inputs": [],
      "name": "ExpectedPause",
      "type": "error"
    },
    {
      "inputs": [
        {
          "internalType": "address",
          "name": "account",
          "type": "address"
        },
        {
          "internalType": "uint256",
          "name": "currentNonce",
          "type": "uint256"
        }
      ],
      "name": "InvalidAccountNonce",
      "type": "error"
    },
    {
      "inputs": [],
      "name": "InvalidShortString",
      "type": "error"
    },
    {
      "inputs": [
        {
          "internalType": "string",
          "name": "str",
          "type": "string"
        }
      ],
      "name": "StringTooLong",
      "type": "error"
    },
    {
      "anonymous": false,
      "inputs": [
        {
          "indexed": true,
          "internalType": "address",
          "name": "owner",
          "type": "address"
        },
        {
          "indexed": true,
          "internalType": "address",
          "name": "spender",
          "type": "address"
        },
        {
          "indexed": false,
          "internalType": "uint256",
          "name": "value",
          "type": "uint256"
        }
      ],
      "name": "Approval",
      "type": "event"
    },
    {
      "anonymous": false,
      "inputs": [
        {
          "indexed": false,
          "internalType": "uint256",
          "name": "recipientsCount",
          "type": "uint256"
        }
      ],
      "name": "BatchMint",
      "type": "event"
    },
    {
      "anonymous": false,
      "inputs": [
        {
          "indexed": true,
          "internalType": "address",
          "name": "from",
          "type": "address"
        },
        {
          "indexed": false,
          "internalType": "uint256",
          "name": "amount",
          "type": "uint256"
        },
        {
          "indexed": false,
          "internalType": "string",
          "name": "reason",
          "type": "string"
        }
      ],
      "name": "BurnedWithReason",
      "type": "event"
    },
    {
      "anonymous": false,
      "inputs": [],
      "name": "EIP712DomainChanged",
      "type": "event"
    },
    {
      "anonymous": false,
      "inputs": [
        {
          "indexed": false,
          "internalType": "uint256",
          "name": "oldLimit",
          "type": "uint256"
        },
        {
          "indexed": false,
          "internalType": "uint256",
          "name": "newLimit",
          "type": "uint256"
        }
      ],
      "name": "MaxMintPerTxUpdated",
      "type": "event"
    },
    {
      "anonymous": false,
      "inputs": [
        {
          "indexed": true,
          "internalType": "address",
          "name": "to",
          "type": "address"
        },
        {
          "indexed": false,
          "internalType": "uint256",
          "name": "amount",
          "type": "uint256"
        },
        {
          "indexed": false,
          "internalType": "string",
          "name": "reason",
          "type": "string"
        }
      ],
      "name": "MintedWithReason",
      "type": "event"
    },
    {
      "anonymous": false,
      "inputs": [
        {
          "indexed": true,
          "internalType": "address",
          "name": "account",
          "type": "address"
        }
      ],
      "name": "MinterAdded",
      "type": "event"
    },
    {
      "anonymous": false,
      "inputs": [
        {
          "indexed": true,
          "internalType": "address",
          "name": "account",
          "type": "address"
        }
      ],
      "name": "MinterRemoved",
      "type": "event"
    },
    {
      "anonymous": false,
      "inputs": [
        {
          "indexed": false,
          "internalType": "address",
          "name": "account",
          "type": "address"
        }
      ],
      "name": "Paused",
      "type": "event"
    },
    {
      "anonymous": false,
      "inputs": [
        {
          "indexed": true,
          "internalType": "bytes32",
          "name": "role",
          "type": "bytes32"
        },
        {
          "indexed": true,
          "internalType": "bytes32",
          "name": "previousAdminRole",
          "type": "bytes32"
        },
        {
          "indexed": true,
          "internalType": "bytes32",
          "name": "newAdminRole",
          "type": "bytes32"
        }
      ],
      "name": "RoleAdminChanged",
      "type": "event"
    },
    {
      "anonymous": false,
      "inputs": [
        {
          "indexed": true,
          "internalType": "bytes32",
          "name": "role",
          "type": "bytes32"
        },
        {
          "indexed": true,
          "internalType": "address",
          "name": "account",
          "type": "address"
        },
        {
          "indexed": true,
          "internalType": "address",
          "name": "sender",
          "type": "address"
        }
      ],
      "name": "RoleGranted",
      "type": "event"
    },
    {
      "anonymous": false,
      "inputs": [
        {
          "indexed": true,
          "internalType": "bytes32",
          "name": "role",
          "type": "bytes32"
        },
        {
          "indexed": true,
          "internalType": "address",
          "name": "account",
          "type": "address"
        },
        {
          "indexed": true,
          "internalType": "address",
          "name": "sender",
          "type": "address"
        }
      ],
      "name": "RoleRevoked",
      "type": "event"
    },
    {
      "anonymous": false,
      "inputs": [
        {
          "indexed": true,
          "internalType": "address",
          "name": "from",
          "type": "address"
        },
        {
          "indexed": true,
          "internalType": "address",
          "name": "to",
          "type": "address"
        },
        {
          "indexed": false,
          "internalType": "uint256",
          "name": "value",
          "type": "uint256"
        }
      ],
      "name": "Transfer",
      "type": "event"
    },
    {
      "anonymous": false,
      "inputs": [
        {
          "indexed": true,
          "internalType": "address",
          "name": "oldTreasury",
          "type": "address"
        },
        {
          "indexed": true,
          "internalType": "address",
          "name": "newTreasury",
          "type": "address"
        }
      ],
      "name": "TreasuryUpdated",
      "type": "event"
    },
    {
      "anonymous": false,
      "inputs": [
        {
          "indexed": false,
          "internalType": "address",
          "name": "account",
          "type": "address"
        }
      ],
      "name": "Unpaused",
      "type": "event"
    },
    {
      "inputs": [],
      "name": "DEFAULT_ADMIN_ROLE",
      "outputs": [
        {
          "internalType": "bytes32",
          "name": "",
          "type": "bytes32"
        }
      ],
      "stateMutability": "view",
      "type": "function"
    },
    {
      "inputs": [],
      "name": "DOMAIN_SEPARATOR",
      "outputs": [
        {
          "internalType": "bytes32",
          "name": "",
          "type": "bytes32"
        }
      ],
      "stateMutability": "view",
      "type": "function"
    },
    {
      "inputs": [],
      "name": "MAX_BATCH_SIZE",
      "outputs": [
        {
          "internalType": "uint256",
          "name": "",
          "type": "uint256"
        }
      ],
      "stateMutability": "view",
      "type": "function"
    },
    {
      "inputs": [],
      "name": "MINTER_ROLE",
      "outputs": [
        {
          "internalType": "bytes32",
          "name": "",
          "type": "bytes32"
        }
      ],
      "stateMutability": "view",
      "type": "function"
    },
    {
      "inputs": [
        {
          "internalType": "address",
          "name": "account",
          "type": "address"
        }
      ],
      "name": "addMinter",
      "outputs": [],
      "stateMutability": "nonpayable",
      "type": "function"
    },
    {
      "inputs": [
        {
          "internalType": "address",
          "name": "owner",
          "type": "address"
        },
        {
          "internalType": "address",
          "name": "spender",
          "type": "address"
        }
      ],
      "name": "allowance",
      "outputs": [
        {
          "internalType": "uint256",
          "name": "",
          "type": "uint256"
        }
      ],
      "stateMutability": "view",
      "type": "function"
    },
    {
      "inputs": [
        {
          "internalType": "address",
          "name": "spender",
          "type": "address"
        },
        {
          "internalType": "uint256",
          "name": "value",
          "type": "uint256"
        }
      ],
      "name": "approve",
      "outputs": [
        {
          "internalType": "bool",
          "name": "",
          "type": "bool"
        }
      ],
      "stateMutability": "nonpayable",
      "type": "function"
    },
    {
      "inputs": [
        {
          "internalType": "address",
          "name": "account",
          "type": "address"
        }
      ],
      "name": "balanceOf",
      "outputs": [
        {
          "internalType": "uint256",
          "name": "",
          "type": "uint256"
        }
      ],
      "stateMutability": "view",
      "type": "function"
    },
    {
      "inputs": [
        {
          "internalType": "address[]",
          "name": "recipients",
          "type": "address[]"
        },
        {
          "internalType": "uint256[]",
          "name": "amounts",
          "type": "uint256[]"
        },
        {
          "internalType": "string",
          "name": "reason",
          "type": "string"
        }
      ],
      "name": "batchMint",
      "outputs": [],
      "stateMutability": "nonpayable",
      "type": "function"
    },
    {
      "inputs": [
        {
          "internalType": "uint256",
          "name": "amount",
          "type": "uint256"
        }
      ],
      "name": "burn",
      "outputs": [],
      "stateMutability": "nonpayable",
      "type": "function"
    },
    {
      "inputs": [
        {
          "internalType": "address",
          "name": "account",
          "type": "address"
        },
        {
          "internalType": "uint256",
          "name": "amount",
          "type": "uint256"
        }
      ],
      "name": "burnFrom",
      "outputs": [],
      "stateMutability": "nonpayable",
      "type": "function"
    },
    {
      "inputs": [
        {
          "internalType": "uint256",
          "name": "amount",
          "type": "uint256"
        },
        {
          "internalType": "string",
          "name": "reason",
          "type": "string"
        }
      ],
      "name": "burnWithReason",
      "outputs": [],
      "stateMutability": "nonpayable",
      "type": "function"
    },
    {
      "inputs": [],
      "name": "decimals",
      "outputs": [
        {
          "internalType": "uint8",
          "name": "",
          "type": "uint8"
        }
      ],
      "stateMutability": "view",
      "type": "function"
    },
    {
      "inputs": [],
      "name": "eip712Domain",
      "outputs": [
        {
          "internalType": "bytes1",
          "name": "fields",
          "type": "bytes1"
        },
        {
          "internalType": "string",
          "name": "name",
          "type": "string"
        },
        {
          "internalType": "string",
          "name": "version",
          "type": "string"
        },
        {
          "internalType": "uint256",
          "name": "chainId",
          "type": "uint256"
        },
        {
          "internalType": "address",
          "name": "verifyingContract",
          "type": "address"
        },
        {
          "internalType": "bytes32",
          "name": "salt",
          "type": "bytes32"
        },
        {
          "internalType": "uint256[]",
          "name": "extensions",
          "type": "uint256[]"
        }
      ],
      "stateMutability": "view",
      "type": "function"
    },
    {
      "inputs": [
        {
          "internalType": "bytes32",
          "name": "role",
          "type": "bytes32"
        }
      ],
      "name": "getRoleAdmin",
      "outputs": [
        {
          "internalType": "bytes32",
          "name": "",
          "type": "bytes32"
        }
      ],
      "stateMutability": "view",
      "type": "function"
    },
    {
      "inputs": [
        {
          "internalType": "bytes32",
          "name": "role",
          "type": "bytes32"
        },
        {
          "internalType": "address",
          "name": "account",
          "type": "address"
        }
      ],
      "name": "grantRole",
      "outputs": [],
      "stateMutability": "nonpayable",
      "type": "function"
    },
    {
      "inputs": [
        {
          "internalType": "bytes32",
          "name": "role",
          "type": "bytes32"
        },
        {
          "internalType": "address",
          "name": "account",
          "type": "address"
        }
      ],
      "name": "hasRole",
      "outputs": [
        {
          "internalType": "bool",
          "name": "",
          "type": "bool"
        }
      ],
      "stateMutability": "view",
      "type": "function"
    },
    {
      "inputs": [
        {
          "internalType": "address",
          "name": "account",
          "type": "address"
        }
      ],
      "name": "isMinter",
      "outputs": [
        {
          "internalType": "bool",
          "name": "",
          "type": "bool"
        }
      ],
      "stateMutability": "view",
      "type": "function"
    },
    {
      "inputs": [],
      "name": "maxMintPerTx",
      "outputs": [
        {
          "internalType": "uint256",
          "name": "",
          "type": "uint256"
        }
      ],
      "stateMutability": "view",
      "type": "function"
    },
    {
      "inputs": [
        {
          "internalType": "address",
          "name": "to",
          "type": "address"
        },
        {
          "internalType": "uint256",
          "name": "amount",
          "type": "uint256"
        },
        {
          "internalType": "string",
          "name": "reason",
          "type": "string"
        }
      ],
      "name": "mint",
      "outputs": [],
      "stateMutability": "nonpayable",
      "type": "function"
    },
    {
      "inputs": [],
      "name": "name",
      "outputs": [
        {
          "internalType": "string",
          "name": "",
          "type": "string"
        }
      ],
      "stateMutability": "view",
      "type": "function"
    },
    {
      "inputs": [
        {
          "internalType": "address",
          "name": "owner",
          "type": "address"
        }
      ],
      "name": "nonces",
      "outputs": [
        {
          "internalType": "uint256",
          "name": "",
          "type": "uint256"
        }
      ],
      "stateMutability": "view",
      "type": "function"
    },
    {
      "inputs": [],
      "name": "pause",
      "outputs": [],
      "stateMutability": "nonpayable",
      "type": "function"
    },
    {
      "inputs": [],
      "name": "paused",
      "outputs": [
        {
          "internalType": "bool",
          "name": "",
          "type": "bool"
        }
      ],
      "stateMutability": "view",
      "type": "function"
    },
    {
      "inputs": [
        {
          "internalType": "address",
          "name": "owner",
          "type": "address"
        },
        {
          "internalType": "address",
          "name": "spender",
          "type": "address"
        },
        {
          "internalType": "uint256",
          "name": "value",
          "type": "uint256"
        },
        {
          "internalType": "uint256",
          "name": "deadline",
          "type": "uint256"
        },
        {
          "internalType": "uint8",
          "name": "v",
          "type": "uint8"
        },
        {
          "internalType": "bytes32",
          "name": "r",
          "type": "bytes32"
        },
        {
          "internalType": "bytes32",
          "name": "s",
          "type": "bytes32"
        }
      ],
      "name": "permit",
      "outputs": [],
      "stateMutability": "nonpayable",
      "type": "function"
    },
    {
      "inputs": [
        {
          "internalType": "address",
          "name": "owner",
          "type": "address"
        },
        {
          "internalType": "address",
          "name": "to",
          "type": "address"
        },
        {
          "internalType": "uint256",
          "name": "value",
          "type": "uint256"
        },
        {
          "internalType": "uint256",
          "name": "deadline",
          "type": "uint256"
        },
        {
          "internalType": "uint8",
          "name": "v",
          "type": "uint8"
        },
        {
          "internalType": "bytes32",
          "name": "r",
          "type": "bytes32"
        },
        {
          "internalType": "bytes32",
          "name": "s",
          "type": "bytes32"
        }
      ],
      "name": "permitAndTransfer",
      "outputs": [],
      "stateMutability": "nonpayable",
      "type": "function"
    },
    {
      "inputs": [
        {
          "internalType": "address",
          "name": "account",
          "type": "address"
        }
      ],
      "name": "removeMinter",
      "outputs": [],
      "stateMutability": "nonpayable",
      "type": "function"
    },
    {
      "inputs": [
        {
          "internalType": "bytes32",
          "name": "role",
          "type": "bytes32"
        },
        {
          "internalType": "address",
          "name": "callerConfirmation",
          "type": "address"
        }
      ],
      "name": "renounceRole",
      "outputs": [],
      "stateMutability": "nonpayable",
      "type": "function"
    },
    {
      "inputs": [
        {
          "internalType": "bytes32",
          "name": "role",
          "type": "bytes32"
        },
        {
          "internalType": "address",
          "name": "account",
          "type": "address"
        }
      ],
      "name": "revokeRole",
      "outputs": [],
      "stateMutability": "nonpayable",
      "type": "function"
    },
    {
      "inputs": [
        {
          "internalType": "uint256",
          "name": "newLimit",
          "type": "uint256"
        }
      ],
      "name": "setMaxMintPerTx",
      "outputs": [],
      "stateMutability": "nonpayable",
      "type": "function"
    },
    {
      "inputs": [
        {
          "internalType": "address",
          "name": "newTreasury",
          "type": "address"
        }
      ],
      "name": "setTreasury",
      "outputs": [],
      "stateMutability": "nonpayable",
      "type": "function"
    },
    {
      "inputs": [
        {
          "internalType": "bytes4",
          "name": "interfaceId",
          "type": "bytes4"
        }
      ],
      "name": "supportsInterface",
      "outputs": [
        {
          "internalType": "bool",
          "name": "",
          "type": "bool"
        }
      ],
      "stateMutability": "view",
      "type": "function"
    },
    {
      "inputs": [],
      "name": "symbol",
      "outputs": [
        {
          "internalType": "string",
          "name": "",
          "type": "string"
        }
      ],
      "stateMutability": "view",
      "type": "function"
    },
    {
      "inputs": [],
      "name": "totalSupply",
      "outputs": [
        {
          "internalType": "uint256",
          "name": "",
          "type": "uint256"
        }
      ],
      "stateMutability": "view",
      "type": "function"
    },
    {
      "inputs": [
        {
          "internalType": "address",
          "name": "to",
          "type": "address"
        },
        {
          "internalType": "uint256",
          "name": "value",
          "type": "uint256"
        }
      ],
      "name": "transfer",
      "outputs": [
        {
          "internalType": "bool",
          "name": "",
          "type": "bool"
        }
      ],
      "stateMutability": "nonpayable",
      "type": "function"
    },
    {
      "inputs": [
        {
          "internalType": "address",
          "name": "from",
          "type": "address"
        },
        {
          "internalType": "address",
          "name": "to",
          "type": "address"
        },
        {
          "internalType": "uint256",
          "name": "value",
          "type": "uint256"
        }
      ],
      "name": "transferFrom",
      "outputs": [
        {
          "internalType": "bool",
          "name": "",
          "type": "bool"
        }
      ],
      "stateMutability": "nonpayable",
      "type": "function"
    },
    {
      "inputs": [],
      "name": "treasury",
      "outputs": [
        {
          "internalType": "address",
          "name": "",
          "type": "address"
        }
      ],
      "stateMutability": "view",
      "type": "function"
    },
    {
      "inputs": [],
      "name": "unpause",
      "outputs": [],
      "stateMutability": "nonpayable",
      "type": "function"
    }
  ],
  "bytecode": "0x61016060405234801562000011575f80fd5b506040516200460538038062004605833981810160405281019062000037919062000575565b6040518060400160405280600681526020017f4d45414e4c590000000000000000000000000000000000000000000000000000815250806040518060400160405280600181526020017f31000000000000000000000000000000000000000000000000000000000000008152506040518060400160405280600681526020017f4d45414e4c5900000000000000000000000000000000000000000000000000008152506040518060400160405280600481526020017f4d4e4c590000000000000000000000000000000000000000000000000000000081525081600390816200012191906200081e565b5080600490816200013391906200081e565b5050506200014c6005836200028560201b90919060201c565b61012081815250506200016a6006826200028560201b90919060201c565b6101408181525050818051906020012060e08181525050808051906020012061010081815250504660a08181525050620001a9620002da60201b60201c565b608081815250503073ffffffffffffffffffffffffffffffffffffffff1660c08173ffffffffffffffffffffffffffffffffffffffff1681525050505050620001fb5f801b836200033660201b60201c565b506200022e7f9f2df0fed2c77648de5860a4cc508cd0818c85b8b8a1ab4ceeef8d981c8956a6826200033660201b60201c565b5069021e19e0c9bab2400000600a819055507f4c8f42e64ecaea3179b1790c1ae8c747d9ca87143dfc8ccf0e6392db5c3024f75f600a546040516200027592919062000954565b60405180910390a1505062000b4f565b5f602083511015620002aa57620002a2836200043260201b60201c565b9050620002d4565b82620002bc836200049c60201b60201c565b5f019081620002cc91906200081e565b5060ff5f1b90505b92915050565b5f7f8b73c3c69bb8fe3d512ecc4cf759cc79239f7b179b0ffacaa9a75d522b39400f60e0516101005146306040516020016200031b959493929190620009aa565b60405160208183030381529060405280519060200120905090565b5f620003498383620004a560201b60201c565b6200042857600160085f8581526020019081526020015f205f015f8473ffffffffffffffffffffffffffffffffffffffff1673ffffffffffffffffffffffffffffffffffffffff1681526020019081526020015f205f6101000a81548160ff021916908315150217905550620003c46200050960201b60201c565b73ffffffffffffffffffffffffffffffffffffffff168273ffffffffffffffffffffffffffffffffffffffff16847f2f8788117e7eff1d82e926ec794901d17c78024a50270940304540a733656f0d60405160405180910390a4600190506200042c565b5f90505b92915050565b5f80829050601f815111156200048157826040517f305a27a900000000000000000000000000000000000000000000000000000000815260040162000478919062000a8f565b60405180910390fd5b8051816200048f9062000ae0565b5f1c175f1b915050919050565b5f819050919050565b5f60085f8481526020019081526020015f205f015f8373ffffffffffffffffffffffffffffffffffffffff1673ffffffffffffffffffffffffffffffffffffffff1681526020019081526020015f205f9054906101000a900460ff16905092915050565b5f33905090565b5f80fd5b5f73ffffffffffffffffffffffffffffffffffffffff82169050919050565b5f6200053f8262000514565b9050919050565b620005518162000533565b81146200055c575f80fd5b50565b5f815190506200056f8162000546565b92915050565b5f80604083850312156200058e576200058d62000510565b5b5f6200059d858286016200055f565b9250506020620005b0858286016200055f565b9150509250929050565b5f81519050919050565b7f4e487b71000000000000000000000000000000000000000000000000000000005f52604160045260245ffd5b7f4e487b71000000000000000000000000000000000000000000000000000000005f52602260045260245ffd5b5f60028204905060018216806200063657607f821691505b6020821081036200064c576200064b620005f1565b5b50919050565b5f819050815f5260205f209050919050565b5f6020601f8301049050919050565b5f82821b905092915050565b5f60088302620006b07fffffffffffffffffffffffffffffffffffffffffffffffffffffffffffffffff8262000673565b620006bc868362000673565b95508019841693508086168417925050509392505050565b5f819050919050565b5f819050919050565b5f6200070662000700620006fa84620006d4565b620006dd565b620006d4565b9050919050565b5f819050919050565b6200072183620006e6565b6200073962000730826200070d565b8484546200067f565b825550505050565b5f90565b6200074f62000741565b6200075c81848462000716565b505050565b5b818110156200078357620007775f8262000745565b60018101905062000762565b5050565b601f821115620007d2576200079c8162000652565b620007a78462000664565b81016020851015620007b7578190505b620007cf620007c68562000664565b83018262000761565b50505b505050565b5f82821c905092915050565b5f620007f45f1984600802620007d7565b1980831691505092915050565b5f6200080e8383620007e3565b9150826002028217905092915050565b6200082982620005ba565b67ffffffffffffffff811115620008455762000844620005c4565b5b6200085182546200061e565b6200085e82828562000787565b5f60209050601f83116001811462000894575f84156200087f578287015190505b6200088b858262000801565b865550620008fa565b601f198416620008a48662000652565b5f5b82811015620008cd57848901518255600182019150602085019450602081019050620008a6565b86831015620008ed5784890151620008e9601f891682620007e3565b8355505b6001600288020188555050505b505050505050565b5f819050919050565b5f6200092b620009256200091f8462000902565b620006dd565b620006d4565b9050919050565b6200093d816200090b565b82525050565b6200094e81620006d4565b82525050565b5f604082019050620009695f83018562000932565b62000978602083018462000943565b9392505050565b5f819050919050565b62000993816200097f565b82525050565b620009a48162000533565b82525050565b5f60a082019050620009bf5f83018862000988565b620009ce602083018762000988565b620009dd604083018662000988565b620009ec606083018562000943565b620009fb608083018462000999565b9695505050505050565b5f82825260208201905092915050565b5f5b8381101562000a3457808201518184015260208101905062000a17565b5f8484015250505050565b5f601f19601f8301169050919050565b5f62000a5b82620005ba565b62000a67818562000a05565b935062000a7981856020860162000a15565b62000a848162000a3f565b840191505092915050565b5f6020820190508181035f83015262000aa9818462000a4f565b905092915050565b5f81519050919050565b5f819050602082019050919050565b5f62000ad782516200097f565b80915050919050565b5f62000aec8262000ab1565b8262000af88462000abb565b905062000b058162000aca565b9250602082101562000b485762000b437fffffffffffffffffffffffffffffffffffffffffffffffffffffffffffffffff8360200360080262000673565b831692505b5050919050565b60805160a05160c05160e051610100516101205161014051613a6462000ba15f395f611e9401525f611e5901525f6121dd01525f6121bc01525f611b0b01525f611b6101525f611b8a0152613a645ff3fe608060405234801561000f575f80fd5b5060043610610230575f3560e01c806379cc67901161012e578063aa271e1a116100b6578063d547741f1161007a578063d547741f1461067c578063dd62ed3e14610698578063de7fcb1d146106c8578063eaab0a83146106e6578063f0f442601461070257610230565b8063aa271e1a146105d8578063cfdbf25414610608578063d3fc986414610626578063d505accf14610642578063d53913931461065e57610230565b806391d14854116100fd57806391d148541461052057806395d89b4114610550578063983b2d561461056e578063a217fddf1461058a578063a9059cbb146105a857610230565b806379cc6790146104a65780637ecebe00146104c25780638456cb59146104f257806384b0196e146104fc57610230565b8063313ce567116101bc57806342966c681161018057806342966c68146104025780635c975abb1461041e578063616cdb1e1461043c57806361d027b31461045857806370a082311461047657610230565b8063313ce567146103845780633644e515146103a257806336568abe146103c057806337f9fbdd146103dc5780633f4ba83a146103f857610230565b806318160ddd1161020357806318160ddd146102ce57806323b872dd146102ec578063248a9ca31461031c5780632f2ff15d1461034c5780633092afd51461036857610230565b806301ffc9a71461023457806306fdde0314610264578063091273a714610282578063095ea7b31461029e575b5f80fd5b61024e600480360381019061024991906128e2565b61071e565b60405161025b9190612927565b60405180910390f35b61026c610797565b60405161027991906129ca565b60405180910390f35b61029c60048036038101906102979190612b49565b610827565b005b6102b860048036038101906102b39190612bfd565b61088d565b6040516102c59190612927565b60405180910390f35b6102d66108af565b6040516102e39190612c4a565b60405180910390f35b61030660048036038101906103019190612c63565b6108b8565b6040516103139190612927565b60405180910390f35b61033660048036038101906103319190612ce6565b6108e6565b6040516103439190612d20565b60405180910390f35b61036660048036038101906103619190612d39565b610903565b005b610382600480360381019061037d9190612d77565b610925565b005b61038c610a10565b6040516103999190612dbd565b60405180910390f35b6103aa610a18565b6040516103b79190612d20565b60405180910390f35b6103da60048036038101906103d59190612d39565b610a26565b005b6103f660048036038101906103f19190612e88565b610aa1565b005b610400610d8c565b005b61041c60048036038101906104179190612f35565b610da3565b005b610426610e06565b6040516104339190612927565b60405180910390f35b61045660048036038101906104519190612f35565b610e1b565b005b610460610eaf565b60405161046d9190612f6f565b60405180910390f35b610490600480360381019061048b9190612d77565b610ed4565b60405161049d9190612c4a565b60405180910390f35b6104c060048036038101906104bb9190612bfd565b610f19565b005b6104dc60048036038101906104d79190612d77565b610f7d565b6040516104e99190612c4a565b60405180910390f35b6104fa610f8e565b005b610504610fa5565b6040516105179796959493929190613079565b60405180910390f35b61053a60048036038101906105359190612d39565b61104a565b6040516105479190612927565b60405180910390f35b6105586110ae565b60405161056591906129ca565b60405180910390f35b61058860048036038101906105839190612d77565b61113e565b005b610592611229565b60405161059f9190612d20565b60405180910390f35b6105c260048036038101906105bd9190612bfd565b61122f565b6040516105cf9190612927565b60405180910390f35b6105f260048036038101906105ed9190612d77565b611251565b6040516105ff9190612927565b60405180910390f35b610610611283565b60405161061d9190612c4a565b60405180910390f35b610640600480360381019061063b91906130fb565b611288565b005b61065c60048036038101906106579190613191565b6113cd565b005b610666611512565b6040516106739190612d20565b60405180910390f35b61069660048036038101906106919190612d39565b611536565b005b6106b260048036038101906106ad919061322e565b611558565b6040516106bf9190612c4a565b60405180910390f35b6106d06115da565b6040516106dd9190612c4a565b60405180910390f35b61070060048036038101906106fb9190613191565b6115e0565b005b61071c60048036038101906107179190612d77565b61160c565b005b5f7f7965db0b000000000000000000000000000000000000000000000000000000007bffffffffffffffffffffffffffffffffffffffffffffffffffffffff1916827bffffffffffffffffffffffffffffffffffffffffffffffffffffffff19161480610790575061078f82611745565b5b9050919050565b6060600380546107a690613299565b80601f01602080910402602001604051908101604052809291908181526020018280546107d290613299565b801561081d5780601f106107f45761010080835404028352916020019161081d565b820191905f5260205f20905b81548152906001019060200180831161080057829003601f168201915b5050505050905090565b61082f6117ae565b61083933836117ef565b3373ffffffffffffffffffffffffffffffffffffffff167fb9a7241fbe3f1a3ddd3f4f73c9381a36c1a0802ef83e2180537729639e04b48a83836040516108819291906132c9565b60405180910390a25050565b5f8061089761186e565b90506108a4818585611875565b600191505092915050565b5f600254905090565b5f806108c261186e565b90506108cf858285611887565b6108da85858561191a565b60019150509392505050565b5f60085f8381526020019081526020015f20600101549050919050565b61090c826108e6565b61091581611a0a565b61091f8383611a1e565b50505050565b5f801b61093181611a0a565b3373ffffffffffffffffffffffffffffffffffffffff168273ffffffffffffffffffffffffffffffffffffffff160361099f576040517f08c379a000000000000000000000000000000000000000000000000000000000815260040161099690613341565b60405180910390fd5b6109c97f9f2df0fed2c77648de5860a4cc508cd0818c85b8b8a1ab4ceeef8d981c8956a683611536565b8173ffffffffffffffffffffffffffffffffffffffff167fe94479a9f7e1952cc78f2d6baab678adc1b772d936c6583def489e524cb6669260405160405180910390a25050565b5f6012905090565b5f610a21611b08565b905090565b610a2e61186e565b73ffffffffffffffffffffffffffffffffffffffff168173ffffffffffffffffffffffffffffffffffffffff1614610a92576040517f6697b23200000000000000000000000000000000000000000000000000000000815260040160405180910390fd5b610a9c8282611bbe565b505050565b7f9f2df0fed2c77648de5860a4cc508cd0818c85b8b8a1ab4ceeef8d981c8956a6610acb81611a0a565b610ad36117ae565b838390508686905014610b1b576040517f08c379a0000000000000000000000000000000000000000000000000000000008152600401610b12906133a9565b60405180910390fd5b60c8868690501115610b62576040517f08c379a0000000000000000000000000000000000000000000000000000000008152600401610b5990613411565b60405180910390fd5b5f5b86869050811015610d49575f73ffffffffffffffffffffffffffffffffffffffff16878783818110610b9957610b9861342f565b5b9050602002016020810190610bae9190612d77565b73ffffffffffffffffffffffffffffffffffffffff1603610c04576040517f08c379a0000000000000000000000000000000000000000000000000000000008152600401610bfb906134a6565b60405180910390fd5b600a54858583818110610c1a57610c1961342f565b5b905060200201351115610c62576040517f08c379a0000000000000000000000000000000000000000000000000000000008152600401610c599061350e565b60405180910390fd5b610cac878783818110610c7857610c7761342f565b5b9050602002016020810190610c8d9190612d77565b868684818110610ca057610c9f61342f565b5b90506020020135611ca8565b868682818110610cbf57610cbe61342f565b5b9050602002016020810190610cd49190612d77565b73ffffffffffffffffffffffffffffffffffffffff167f9cf55f7e7b487a713c38373fb2fea24a741b6d03513b59296180a5d6817510b7868684818110610d1e57610d1d61342f565b5b9050602002013585604051610d349291906132c9565b60405180910390a28080600101915050610b64565b507fbddee7014f843553d21f168c53d4cc3524c178324b898e35dd888987af1fba6086869050604051610d7c9190612c4a565b60405180910390a1505050505050565b5f801b610d9881611a0a565b610da0611d27565b50565b610dab6117ae565b610db533826117ef565b3373ffffffffffffffffffffffffffffffffffffffff167fb9a7241fbe3f1a3ddd3f4f73c9381a36c1a0802ef83e2180537729639e04b48a82604051610dfb9190613576565b60405180910390a250565b5f60095f9054906101000a900460ff16905090565b5f801b610e2781611a0a565b5f8211610e69576040517f08c379a0000000000000000000000000000000000000000000000000000000008152600401610e60906135ec565b60405180910390fd5b7f4c8f42e64ecaea3179b1790c1ae8c747d9ca87143dfc8ccf0e6392db5c3024f7600a5483604051610e9c92919061360a565b60405180910390a181600a819055505050565b600b5f9054906101000a900473ffffffffffffffffffffffffffffffffffffffff1681565b5f805f8373ffffffffffffffffffffffffffffffffffffffff1673ffffffffffffffffffffffffffffffffffffffff1681526020019081526020015f20549050919050565b610f216117ae565b610f2b8282611d88565b8173ffffffffffffffffffffffffffffffffffffffff167fb9a7241fbe3f1a3ddd3f4f73c9381a36c1a0802ef83e2180537729639e04b48a82604051610f71919061367b565b60405180910390a25050565b5f610f8782611da8565b9050919050565b5f801b610f9a81611a0a565b610fa2611dee565b50565b5f6060805f805f6060610fb6611e50565b610fbe611e8b565b46305f801b5f67ffffffffffffffff811115610fdd57610fdc612a25565b5b60405190808252806020026020018201604052801561100b5781602001602082028036833780820191505090505b507f0f00000000000000000000000000000000000000000000000000000000000000959493929190965096509650965096509650965090919293949596565b5f60085f8481526020019081526020015f205f015f8373ffffffffffffffffffffffffffffffffffffffff1673ffffffffffffffffffffffffffffffffffffffff1681526020019081526020015f205f9054906101000a900460ff16905092915050565b6060600480546110bd90613299565b80601f01602080910402602001604051908101604052809291908181526020018280546110e990613299565b80156111345780601f1061110b57610100808354040283529160200191611134565b820191905f5260205f20905b81548152906001019060200180831161111757829003601f168201915b5050505050905090565b5f801b61114a81611a0a565b5f73ffffffffffffffffffffffffffffffffffffffff168273ffffffffffffffffffffffffffffffffffffffff16036111b8576040517f08c379a00000000000000000000000000000000000000000000000000000000081526004016111af90613717565b60405180910390fd5b6111e27f9f2df0fed2c77648de5860a4cc508cd0818c85b8b8a1ab4ceeef8d981c8956a683610903565b8173ffffffffffffffffffffffffffffffffffffffff167f6ae172837ea30b801fbfcdd4108aa1d5bf8ff775444fd70256b44e6bf3dfc3f660405160405180910390a25050565b5f801b81565b5f8061123961186e565b905061124681858561191a565b600191505092915050565b5f61127c7f9f2df0fed2c77648de5860a4cc508cd0818c85b8b8a1ab4ceeef8d981c8956a68361104a565b9050919050565b60c881565b7f9f2df0fed2c77648de5860a4cc508cd0818c85b8b8a1ab4ceeef8d981c8956a66112b281611a0a565b6112ba6117ae565b5f73ffffffffffffffffffffffffffffffffffffffff168473ffffffffffffffffffffffffffffffffffffffff1603611328576040517f08c379a000000000000000000000000000000000000000000000000000000000815260040161131f906134a6565b60405180910390fd5b600a5483111561136d576040517f08c379a0000000000000000000000000000000000000000000000000000000008152600401611364906137a5565b60405180910390fd5b6113778484611ca8565b8373ffffffffffffffffffffffffffffffffffffffff167f9cf55f7e7b487a713c38373fb2fea24a741b6d03513b59296180a5d6817510b784846040516113bf9291906132c9565b60405180910390a250505050565b8342111561141257836040517f627913020000000000000000000000000000000000000000000000000000000081526004016114099190612c4a565b60405180910390fd5b5f7f6e71edae12b1b97f4d1f60370fef10105fa2faae0126114a169c64845d6126c98888886114408c611ec6565b89604051602001611456969594939291906137c3565b6040516020818303038152906040528051906020012090505f61147882611f19565b90505f61148782878787611f32565b90508973ffffffffffffffffffffffffffffffffffffffff168173ffffffffffffffffffffffffffffffffffffffff16146114fb57808a6040517f4b800e460000000000000000000000000000000000000000000000000000000081526004016114f2929190613822565b60405180910390fd5b6115068a8a8a611875565b50505050505050505050565b7f9f2df0fed2c77648de5860a4cc508cd0818c85b8b8a1ab4ceeef8d981c8956a681565b61153f826108e6565b61154881611a0a565b6115528383611bbe565b50505050565b5f60015f8473ffffffffffffffffffffffffffffffffffffffff1673ffffffffffffffffffffffffffffffffffffffff1681526020019081526020015f205f8373ffffffffffffffffffffffffffffffffffffffff1673ffffffffffffffffffffffffffffffffffffffff1681526020019081526020015f2054905092915050565b600a5481565b6115e86117ae565b6115f7873387878787876113cd565b6116028787876108b8565b5050505050505050565b5f801b61161881611a0a565b5f73ffffffffffffffffffffffffffffffffffffffff168273ffffffffffffffffffffffffffffffffffffffff1603611686576040517f08c379a000000000000000000000000000000000000000000000000000000000815260040161167d90613893565b60405180910390fd5b8173ffffffffffffffffffffffffffffffffffffffff16600b5f9054906101000a900473ffffffffffffffffffffffffffffffffffffffff1673ffffffffffffffffffffffffffffffffffffffff167f4ab5be82436d353e61ca18726e984e561f5c1cc7c6d38b29d2553c790434705a60405160405180910390a381600b5f6101000a81548173ffffffffffffffffffffffffffffffffffffffff021916908373ffffffffffffffffffffffffffffffffffffffff1602179055505050565b5f7f01ffc9a7000000000000000000000000000000000000000000000000000000007bffffffffffffffffffffffffffffffffffffffffffffffffffffffff1916827bffffffffffffffffffffffffffffffffffffffffffffffffffffffff1916149050919050565b6117b6610e06565b156117ed576040517fd93c066500000000000000000000000000000000000000000000000000000000815260040160405180910390fd5b565b5f73ffffffffffffffffffffffffffffffffffffffff168273ffffffffffffffffffffffffffffffffffffffff160361185f575f6040517f96c6fd1e0000000000000000000000000000000000000000000000000000000081526004016118569190612f6f565b60405180910390fd5b61186a825f83611f60565b5050565b5f33905090565b6118828383836001611f78565b505050565b5f6118928484611558565b90507fffffffffffffffffffffffffffffffffffffffffffffffffffffffffffffffff8110156119145781811015611905578281836040517ffb8f41b20000000000000000000000000000000000000000000000000000000081526004016118fc939291906138b1565b60405180910390fd5b61191384848484035f611f78565b5b50505050565b5f73ffffffffffffffffffffffffffffffffffffffff168373ffffffffffffffffffffffffffffffffffffffff160361198a575f6040517f96c6fd1e0000000000000000000000000000000000000000000000000000000081526004016119819190612f6f565b60405180910390fd5b5f73ffffffffffffffffffffffffffffffffffffffff168273ffffffffffffffffffffffffffffffffffffffff16036119fa575f6040517fec442f050000000000000000000000000000000000000000000000000000000081526004016119f19190612f6f565b60405180910390fd5b611a05838383611f60565b505050565b611a1b81611a1661186e565b612147565b50565b5f611a29838361104a565b611afe57600160085f8581526020019081526020015f205f015f8473ffffffffffffffffffffffffffffffffffffffff1673ffffffffffffffffffffffffffffffffffffffff1681526020019081526020015f205f6101000a81548160ff021916908315150217905550611a9b61186e565b73ffffffffffffffffffffffffffffffffffffffff168273ffffffffffffffffffffffffffffffffffffffff16847f2f8788117e7eff1d82e926ec794901d17c78024a50270940304540a733656f0d60405160405180910390a460019050611b02565b5f90505b92915050565b5f7f000000000000000000000000000000000000000000000000000000000000000073ffffffffffffffffffffffffffffffffffffffff163073ffffffffffffffffffffffffffffffffffffffff16148015611b8357507f000000000000000000000000000000000000000000000000000000000000000046145b15611bb0577f00000000000000000000000000000000000000000000000000000000000000009050611bbb565b611bb8612198565b90505b90565b5f611bc9838361104a565b15611c9e575f60085f8581526020019081526020015f205f015f8473ffffffffffffffffffffffffffffffffffffffff1673ffffffffffffffffffffffffffffffffffffffff1681526020019081526020015f205f6101000a81548160ff021916908315150217905550611c3b61186e565b73ffffffffffffffffffffffffffffffffffffffff168273ffffffffffffffffffffffffffffffffffffffff16847ff6391f5c32d9c69d2a47ea670b442974b53935d1edc7fd64eb21e047a839171b60405160405180910390a460019050611ca2565b5f90505b92915050565b5f73ffffffffffffffffffffffffffffffffffffffff168273ffffffffffffffffffffffffffffffffffffffff1603611d18575f6040517fec442f05000000000000000000000000000000000000000000000000000000008152600401611d0f9190612f6f565b60405180910390fd5b611d235f8383611f60565b5050565b611d2f61222d565b5f60095f6101000a81548160ff0219169083151502179055507f5db9ee0a495bf2e6ff9c91a7834c1ba4fdd244a5e8aa4e537bd38aeae4b073aa611d7161186e565b604051611d7e9190612f6f565b60405180910390a1565b611d9a82611d9461186e565b83611887565b611da482826117ef565b5050565b5f60075f8373ffffffffffffffffffffffffffffffffffffffff1673ffffffffffffffffffffffffffffffffffffffff1681526020019081526020015f20549050919050565b611df66117ae565b600160095f6101000a81548160ff0219169083151502179055507f62e78cea01bee320cd4e420270b5ea74000d11b0c9f74754ebdbfc544b05a258611e3961186e565b604051611e469190612f6f565b60405180910390a1565b6060611e8660057f000000000000000000000000000000000000000000000000000000000000000061226d90919063ffffffff16565b905090565b6060611ec160067f000000000000000000000000000000000000000000000000000000000000000061226d90919063ffffffff16565b905090565b5f60075f8373ffffffffffffffffffffffffffffffffffffffff1673ffffffffffffffffffffffffffffffffffffffff1681526020019081526020015f205f815480929190600101919050559050919050565b5f611f2b611f25611b08565b8361231a565b9050919050565b5f805f80611f428888888861235a565b925092509250611f528282612441565b829350505050949350505050565b611f686117ae565b611f738383836125a3565b505050565b5f73ffffffffffffffffffffffffffffffffffffffff168473ffffffffffffffffffffffffffffffffffffffff1603611fe8575f6040517fe602df05000000000000000000000000000000000000000000000000000000008152600401611fdf9190612f6f565b60405180910390fd5b5f73ffffffffffffffffffffffffffffffffffffffff168373ffffffffffffffffffffffffffffffffffffffff1603612058575f6040517f94280d6200000000000000000000000000000000000000000000000000000000815260040161204f9190612f6f565b60405180910390fd5b8160015f8673ffffffffffffffffffffffffffffffffffffffff1673ffffffffffffffffffffffffffffffffffffffff1681526020019081526020015f205f8573ffffffffffffffffffffffffffffffffffffffff1673ffffffffffffffffffffffffffffffffffffffff1681526020019081526020015f20819055508015612141578273ffffffffffffffffffffffffffffffffffffffff168473ffffffffffffffffffffffffffffffffffffffff167f8c5be1e5ebec7d5bd14f71427d1e84f3dd0314c0f7b2291e5b200ac8c7c3b925846040516121389190612c4a565b60405180910390a35b50505050565b612151828261104a565b6121945780826040517fe2517d3f00000000000000000000000000000000000000000000000000000000815260040161218b9291906138e6565b60405180910390fd5b5050565b5f7f8b73c3c69bb8fe3d512ecc4cf759cc79239f7b179b0ffacaa9a75d522b39400f7f00000000000000000000000000000000000000000000000000000000000000007f0000000000000000000000000000000000000000000000000000000000000000463060405160200161221295949392919061390d565b60405160208183030381529060405280519060200120905090565b612235610e06565b61226b576040517f8dfc202b00000000000000000000000000000000000000000000000000000000815260040160405180910390fd5b565b606060ff5f1b831461228957612282836127bc565b9050612314565b81805461229590613299565b80601f01602080910402602001604051908101604052809291908181526020018280546122c190613299565b801561230c5780601f106122e35761010080835404028352916020019161230c565b820191905f5260205f20905b8154815290600101906020018083116122ef57829003601f168201915b505050505090505b92915050565b5f6040517f190100000000000000000000000000000000000000000000000000000000000081528360028201528260228201526042812091505092915050565b5f805f7f7fffffffffffffffffffffffffffffff5d576e7357a4501ddfe92f46681b20a0845f1c1115612396575f600385925092509250612437565b5f6001888888886040515f81526020016040526040516123b9949392919061395e565b6020604051602081039080840390855afa1580156123d9573d5f803e3d5ffd5b5050506020604051035190505f73ffffffffffffffffffffffffffffffffffffffff168173ffffffffffffffffffffffffffffffffffffffff160361242a575f60015f801b93509350935050612437565b805f805f1b935093509350505b9450945094915050565b5f6003811115612454576124536139a1565b5b826003811115612467576124666139a1565b5b031561259f5760016003811115612481576124806139a1565b5b826003811115612494576124936139a1565b5b036124cb576040517ff645eedf00000000000000000000000000000000000000000000000000000000815260040160405180910390fd5b600260038111156124df576124de6139a1565b5b8260038111156124f2576124f16139a1565b5b0361253657805f1c6040517ffce698f700000000000000000000000000000000000000000000000000000000815260040161252d9190612c4a565b60405180910390fd5b600380811115612549576125486139a1565b5b82600381111561255c5761255b6139a1565b5b0361259e57806040517fd78bce0c0000000000000000000000000000000000000000000000000000000081526004016125959190612d20565b60405180910390fd5b5b5050565b5f73ffffffffffffffffffffffffffffffffffffffff168373ffffffffffffffffffffffffffffffffffffffff16036125f3578060025f8282546125e791906139fb565b925050819055506126c1565b5f805f8573ffffffffffffffffffffffffffffffffffffffff1673ffffffffffffffffffffffffffffffffffffffff1681526020019081526020015f205490508181101561267c578381836040517fe450d38c000000000000000000000000000000000000000000000000000000008152600401612673939291906138b1565b60405180910390fd5b8181035f808673ffffffffffffffffffffffffffffffffffffffff1673ffffffffffffffffffffffffffffffffffffffff1681526020019081526020015f2081905550505b5f73ffffffffffffffffffffffffffffffffffffffff168273ffffffffffffffffffffffffffffffffffffffff1603612708578060025f8282540392505081905550612752565b805f808473ffffffffffffffffffffffffffffffffffffffff1673ffffffffffffffffffffffffffffffffffffffff1681526020019081526020015f205f82825401925050819055505b8173ffffffffffffffffffffffffffffffffffffffff168373ffffffffffffffffffffffffffffffffffffffff167fddf252ad1be2c89b69c2b068fc378daa952ba7f163c4a11628f55a4df523b3ef836040516127af9190612c4a565b60405180910390a3505050565b60605f6127c88361282e565b90505f602067ffffffffffffffff8111156127e6576127e5612a25565b5b6040519080825280601f01601f1916602001820160405280156128185781602001600182028036833780820191505090505b5090508181528360208201528092505050919050565b5f8060ff835f1c169050601f811115612873576040517fb3512b0c00000000000000000000000000000000000000000000000000000000815260040160405180910390fd5b80915050919050565b5f604051905090565b5f80fd5b5f80fd5b5f7fffffffff0000000000000000000000000000000000000000000000000000000082169050919050565b6128c18161288d565b81146128cb575f80fd5b50565b5f813590506128dc816128b8565b92915050565b5f602082840312156128f7576128f6612885565b5b5f612904848285016128ce565b91505092915050565b5f8115159050919050565b6129218161290d565b82525050565b5f60208201905061293a5f830184612918565b92915050565b5f81519050919050565b5f82825260208201905092915050565b5f5b8381101561297757808201518184015260208101905061295c565b5f8484015250505050565b5f601f19601f8301169050919050565b5f61299c82612940565b6129a6818561294a565b93506129b681856020860161295a565b6129bf81612982565b840191505092915050565b5f6020820190508181035f8301526129e28184612992565b905092915050565b5f819050919050565b6129fc816129ea565b8114612a06575f80fd5b50565b5f81359050612a17816129f3565b92915050565b5f80fd5b5f80fd5b7f4e487b71000000000000000000000000000000000000000000000000000000005f52604160045260245ffd5b612a5b82612982565b810181811067ffffffffffffffff82111715612a7a57612a79612a25565b5b80604052505050565b5f612a8c61287c565b9050612a988282612a52565b919050565b5f67ffffffffffffffff821115612ab757612ab6612a25565b5b612ac082612982565b9050602081019050919050565b828183375f83830152505050565b5f612aed612ae884612a9d565b612a83565b905082815260208101848484011115612b0957612b08612a21565b5b612b14848285612acd565b509392505050565b5f82601f830112612b3057612b2f612a1d565b5b8135612b40848260208601612adb565b91505092915050565b5f8060408385031215612b5f57612b5e612885565b5b5f612b6c85828601612a09565b925050602083013567ffffffffffffffff811115612b8d57612b8c612889565b5b612b9985828601612b1c565b9150509250929050565b5f73ffffffffffffffffffffffffffffffffffffffff82169050919050565b5f612bcc82612ba3565b9050919050565b612bdc81612bc2565b8114612be6575f80fd5b50565b5f81359050612bf781612bd3565b92915050565b5f8060408385031215612c1357612c12612885565b5b5f612c2085828601612be9565b9250506020612c3185828601612a09565b9150509250929050565b612c44816129ea565b82525050565b5f602082019050612c5d5f830184612c3b565b92915050565b5f805f60608486031215612c7a57612c79612885565b5b5f612c8786828701612be9565b9350506020612c9886828701612be9565b9250506040612ca986828701612a09565b9150509250925092565b5f819050919050565b612cc581612cb3565b8114612ccf575f80fd5b50565b5f81359050612ce081612cbc565b92915050565b5f60208284031215612cfb57612cfa612885565b5b5f612d0884828501612cd2565b91505092915050565b612d1a81612cb3565b82525050565b5f602082019050612d335f830184612d11565b92915050565b5f8060408385031215612d4f57612d4e612885565b5b5f612d5c85828601612cd2565b9250506020612d6d85828601612be9565b9150509250929050565b5f60208284031215612d8c57612d8b612885565b5b5f612d9984828501612be9565b91505092915050565b5f60ff82169050919050565b612db781612da2565b82525050565b5f602082019050612dd05f830184612dae565b92915050565b5f80fd5b5f80fd5b5f8083601f840112612df357612df2612a1d565b5b8235905067ffffffffffffffff811115612e1057612e0f612dd6565b5b602083019150836020820283011115612e2c57612e2b612dda565b5b9250929050565b5f8083601f840112612e4857612e47612a1d565b5b8235905067ffffffffffffffff811115612e6557612e64612dd6565b5b602083019150836020820283011115612e8157612e80612dda565b5b9250929050565b5f805f805f60608688031215612ea157612ea0612885565b5b5f86013567ffffffffffffffff811115612ebe57612ebd612889565b5b612eca88828901612dde565b9550955050602086013567ffffffffffffffff811115612eed57612eec612889565b5b612ef988828901612e33565b9350935050604086013567ffffffffffffffff811115612f1c57612f1b612889565b5b612f2888828901612b1c565b9150509295509295909350565b5f60208284031215612f4a57612f49612885565b5b5f612f5784828501612a09565b91505092915050565b612f6981612bc2565b82525050565b5f602082019050612f825f830184612f60565b92915050565b5f7fff0000000000000000000000000000000000000000000000000000000000000082169050919050565b612fbc81612f88565b82525050565b5f81519050919050565b5f82825260208201905092915050565b5f819050602082019050919050565b612ff4816129ea565b82525050565b5f6130058383612feb565b60208301905092915050565b5f602082019050919050565b5f61302782612fc2565b6130318185612fcc565b935061303c83612fdc565b805f5b8381101561306c5781516130538882612ffa565b975061305e83613011565b92505060018101905061303f565b5085935050505092915050565b5f60e08201905061308c5f83018a612fb3565b818103602083015261309e8189612992565b905081810360408301526130b28188612992565b90506130c16060830187612c3b565b6130ce6080830186612f60565b6130db60a0830185612d11565b81810360c08301526130ed818461301d565b905098975050505050505050565b5f805f6060848603121561311257613111612885565b5b5f61311f86828701612be9565b935050602061313086828701612a09565b925050604084013567ffffffffffffffff81111561315157613150612889565b5b61315d86828701612b1c565b9150509250925092565b61317081612da2565b811461317a575f80fd5b50565b5f8135905061318b81613167565b92915050565b5f805f805f805f60e0888a0312156131ac576131ab612885565b5b5f6131b98a828b01612be9565b97505060206131ca8a828b01612be9565b96505060406131db8a828b01612a09565b95505060606131ec8a828b01612a09565b94505060806131fd8a828b0161317d565b93505060a061320e8a828b01612cd2565b92505060c061321f8a828b01612cd2565b91505092959891949750929550565b5f806040838503121561324457613243612885565b5b5f61325185828601612be9565b925050602061326285828601612be9565b9150509250929050565b7f4e487b71000000000000000000000000000000000000000000000000000000005f52602260045260245ffd5b5f60028204905060018216806132b057607f821691505b6020821081036132c3576132c261326c565b5b50919050565b5f6040820190506132dc5f830185612c3b565b81810360208301526132ee8184612992565b90509392505050565b7f4d65616e6c793a2063616e6e6f742072656d6f766520796f757273656c6600005f82015250565b5f61332b601e8361294a565b9150613336826132f7565b602082019050919050565b5f6020820190508181035f8301526133588161331f565b9050919050565b7f4d65616e6c793a206c656e677468206d69736d617463680000000000000000005f82015250565b5f61339360178361294a565b915061339e8261335f565b602082019050919050565b5f6020820190508181035f8301526133c081613387565b9050919050565b7f4d65616e6c793a20626174636820746f6f206c617267650000000000000000005f82015250565b5f6133fb60178361294a565b9150613406826133c7565b602082019050919050565b5f6020820190508181035f830152613428816133ef565b9050919050565b7f4e487b71000000000000000000000000000000000000000000000000000000005f52603260045260245ffd5b7f4d65616e6c793a206d696e7420746f20746865207a65726f20616464726573735f82015250565b5f61349060208361294a565b915061349b8261345c565b602082019050919050565b5f6020820190508181035f8301526134bd81613484565b9050919050565b7f4d65616e6c793a2065786365656473206d61784d696e745065725478000000005f82015250565b5f6134f8601c8361294a565b9150613503826134c4565b602082019050919050565b5f6020820190508181035f830152613525816134ec565b9050919050565b7f6d616e75616c206275726e0000000000000000000000000000000000000000005f82015250565b5f613560600b8361294a565b915061356b8261352c565b602082019050919050565b5f6040820190506135895f830184612c3b565b818103602083015261359a81613554565b905092915050565b7f4d65616e6c793a206c696d6974206d757374206265203e2030000000000000005f82015250565b5f6135d660198361294a565b91506135e1826135a2565b602082019050919050565b5f6020820190508181035f830152613603816135ca565b9050919050565b5f60408201905061361d5f830185612c3b565b61362a6020830184612c3b565b9392505050565b7f6d616e75616c206275726e46726f6d00000000000000000000000000000000005f82015250565b5f613665600f8361294a565b915061367082613631565b602082019050919050565b5f60408201905061368e5f830184612c3b565b818103602083015261369f81613659565b905092915050565b7f4d65616e6c793a206d696e74657220697320746865207a65726f2061646472655f8201527f7373000000000000000000000000000000000000000000000000000000000000602082015250565b5f61370160228361294a565b915061370c826136a7565b604082019050919050565b5f6020820190508181035f83015261372e816136f5565b9050919050565b7f4d65616e6c793a20616d6f756e742065786365656473206d61784d696e7450655f8201527f7254780000000000000000000000000000000000000000000000000000000000602082015250565b5f61378f60238361294a565b915061379a82613735565b604082019050919050565b5f6020820190508181035f8301526137bc81613783565b9050919050565b5f60c0820190506137d65f830189612d11565b6137e36020830188612f60565b6137f06040830187612f60565b6137fd6060830186612c3b565b61380a6080830185612c3b565b61381760a0830184612c3b565b979650505050505050565b5f6040820190506138355f830185612f60565b6138426020830184612f60565b9392505050565b7f4d65616e6c793a207472656173757279206973207a65726f20616464726573735f82015250565b5f61387d60208361294a565b915061388882613849565b602082019050919050565b5f6020820190508181035f8301526138aa81613871565b9050919050565b5f6060820190506138c45f830186612f60565b6138d16020830185612c3b565b6138de6040830184612c3b565b949350505050565b5f6040820190506138f95f830185612f60565b6139066020830184612d11565b9392505050565b5f60a0820190506139205f830188612d11565b61392d6020830187612d11565b61393a6040830186612d11565b6139476060830185612c3b565b6139546080830184612f60565b9695505050505050565b5f6080820190506139715f830187612d11565b61397e6020830186612dae565b61398b6040830185612d11565b6139986060830184612d11565b95945050505050565b7f4e487b71000000000000000000000000000000000000000000000000000000005f52602160045260245ffd5b7f4e487b71000000000000000000000000000000000000000000000000000000005f52601160045260245ffd5b5f613a05826129ea565b9150613a10836129ea565b9250828201905080821115613a2857613a276139ce565b5b9291505056fea26469706673582212200855a19870e9facb6f1f8878a4b43e674307155d17137fb10be46c17fc652a3964736f6c63430008180033",
  "linkReferences": {},
  "deployedLinkReferences": {}
}