{
  "_format": "hh-sol-artifact-1",
  "contractName": "MeanlyCoin",
  "sourceName": "contracts/MeanlyCoin.sol",
  "abi": [
    {
      "inputs": [
        {
          "internalType": "address",
          "name": "defaultAdmin",
          "type": "address"
        },
        {
          "internalType": "address",
          "name": "minter",
          "type": "address"
        }
      ],
      "stateMutability": "nonpayable",
      "type": "constructor"
    },
    {
      "inputs": [],
      "name": "AccessControlBadConfirmation",
      "type": "error"
    },
    {
      "inputs": [
        {
          "internalType": "address",
          "name": "account",
          "type": "address"
        },
        {
          "internalType": "bytes32",
          "name": "neededRole",
          "type": "bytes32"
        }
      ],
      "name": "AccessControlUnauthorizedAccount",
      "type": "error"
    },
    {
      "inputs": [],
      "name": "ECDSAInvalidSignature",
      "type": "error"
    },
    {
      "inputs": [
        {
          "internalType": "uint256",
          "name": "length",
          "type": "uint256"
        }
      ],
      "name": "ECDSAInvalidSignatureLength",
      "type": "error"
    },
    {
      "inputs": [
        {
          "internalType": "bytes32",
          "name": "s",
          "type": "bytes32"
        }
      ],
      "name": "ECDSAInvalidSignatureS",
      "type": "error"
    },
    {
      "inputs": [
        {
          "internalType": "address",
          "name": "spender",
          "type": "address"
        },
        {
          "internalType": "uint256",
          "name": "allowance",
          "type": "uint256"
        },
        {
          "internalType": "uint256",
          "name": "needed",
          "type": "uint256"
        }
      ],
      "name": "ERC20InsufficientAllowance",
      "type": "error"
    },
    {
      "inputs": [
        {
          "internalType": "address",
          "name": "sender",
          "type": "address"
        },
        {
          "internalType": "uint256",
          "name": "balance",
          "type": "uint256"
        },
        {
          "internalType": "uint256",
          "name": "needed",
          "type": "uint256"
        }
      ],
      "name": "ERC20InsufficientBalance",
      "type": "error"
    },
    {
      "inputs": [
        {
          "internalType": "address",
          "name": "approver",
          "type": "address"
        }
      ],
      "name": "ERC20InvalidApprover",
      "type": "error"
    },
    {
      "inputs": [
        {
          "internalType": "address",
          "name": "receiver",
          "type": "address"
        }
      ],
      "name": "ERC20InvalidReceiver",
      "type": "error"
    },
    {
      "inputs": [
        {
          "internalType": "address",
          "name": "sender",
          "type": "address"
        }
      ],
      "name": "ERC20InvalidSender",
      "type": "error"
    },
    {
      "inputs": [
        {
          "internalType": "address",
          "name": "spender",
          "type": "address"
        }
      ],
      "name": "ERC20InvalidSpender",
      "type": "error"
    },
    {
      "inputs": [
        {
          "internalType": "uint256",
          "name": "deadline",
          "type": "uint256"
        }
      ],
      "name": "ERC2612ExpiredSignature",
      "type": "error"
    },
    {
      "inputs": [
        {
          "internalType": "address",
          "name": "signer",
          "type": "address"
        },
        {
          "internalType": "address",
          "name": "owner",
          "type": "address"
        }
      ],
      "name": "ERC2612InvalidSigner",
      "type": "error"
    },
    {
      "inputs": [],
      "name": "EnforcedPause",
      "type": "error"
    },
    {
      "inputs": [],
      "name": "ExpectedPause",
      "type": "error"
    },
    {
      "inputs": [
        {
          "internalType": "address",
          "name": "account",
          "type": "address"
        },
        {
          "internalType": "uint256",
          "name": "currentNonce",
          "type": "uint256"
        }
      ],
      "name": "InvalidAccountNonce",
      "type": "error"
    },
    {
      "inputs": [],
      "name": "InvalidShortString",
      "type": "error"
    },
    {
      "inputs": [
        {
          "internalType": "string",
          "name": "str",
          "type": "string"
        }
      ],
      "name": "StringTooLong",
      "type": "error"
    },
    {
      "anonymous": false,
      "inputs": [
        {
          "indexed": true,
          "internalType": "address",
          "name": "owner",
          "type": "address"
        },
        {
          "indexed": true,
          "internalType": "address",
          "name": "spender",
          "type": "address"
        },
        {
          "indexed": false,
          "internalType": "uint256",
          "name": "value",
          "type": "uint256"
        }
      ],
      "name": "Approval",
      "type": "event"
    },
    {
      "anonymous": false,
      "inputs": [
        {
          "indexed": false,
          "internalType": "uint256",
          "name": "recipientsCount",
          "type": "uint256"
        }
      ],
      "name": "BatchMint",
      "type": "event"
    },
    {
      "anonymous": false,
      "inputs": [
        {
          "indexed": true,
          "internalType": "address",
          "name": "from",
          "type": "address"
        },
        {
          "indexed": false,
          "internalType": "uint256",
          "name": "amount",
          "type": "uint256"
        },
        {
          "indexed": false,
          "internalType": "string",
          "name": "reason",
          "type": "string"
        }
      ],
      "name": "BurnedWithReason",
      "type": "event"
    },
    {
      "anonymous": false,
      "inputs": [],
      "name": "EIP712DomainChanged",
      "type": "event"
    },
    {
      "anonymous": false,
      "inputs": [
        {
          "indexed": false,
          "internalType": "uint256",
          "name": "oldLimit",
          "type": "uint256"
        },
        {
          "indexed": false,
          "internalType": "uint256",
          "name": "newLimit",
          "type": "uint256"
        }
      ],
      "name": "MaxMintPerTxUpdated",
      "type": "event"
    },
    {
      "anonymous": false,
      "inputs": [
        {
          "indexed": true,
          "internalType": "address",
          "name": "to",
          "type": "address"
        },
        {
          "indexed": false,
          "internalType": "uint256",
          "name": "amount",
          "type": "uint256"
        },
        {
          "indexed": false,
          "internalType": "string",
          "name": "reason",
          "type": "string"
        }
      ],
      "name": "MintedWithReason",
      "type": "event"
    },
    {
      "anonymous": false,
      "inputs": [
        {
          "indexed": true,
          "internalType": "address",
          "name": "account",
          "type": "address"
        }
      ],
      "name": "MinterAdded",
      "type": "event"
    },
    {
      "anonymous": false,
      "inputs": [
        {
          "indexed": true,
          "internalType": "address",
          "name": "account",
          "type": "address"
        }
      ],
      "name": "MinterRemoved",
      "type": "event"
    },
    {
      "anonymous": false,
      "inputs": [
        {
          "indexed": false,
          "internalType": "address",
          "name": "account",
          "type": "address"
        }
      ],
      "name": "Paused",
      "type": "event"
    },
    {
      "anonymous": false,
      "inputs": [
        {
          "indexed": true,
          "internalType": "bytes32",
          "name": "role",
          "type": "bytes32"
        },
        {
          "indexed": true,
          "internalType": "bytes32",
          "name": "previousAdminRole",
          "type": "bytes32"
        },
        {
          "indexed": true,
          "internalType": "bytes32",
          "name": "newAdminRole",
          "type": "bytes32"
        }
      ],
      "name": "RoleAdminChanged",
      "type": "event"
    },
    {
      "anonymous": false,
      "inputs": [
        {
          "indexed": true,
          "internalType": "bytes32",
          "name": "role",
          "type": "bytes32"
        },
        {
          "indexed": true,
          "internalType": "address",
          "name": "account",
          "type": "address"
        },
        {
          "indexed": true,
          "internalType": "address",
          "name": "sender",
          "type": "address"
        }
      ],
      "name": "RoleGranted",
      "type": "event"
    },
    {
      "anonymous": false,
      "inputs": [
        {
          "indexed": true,
          "internalType": "bytes32",
          "name": "role",
          "type": "bytes32"
        },
        {
          "indexed": true,
          "internalType": "address",
          "name": "account",
          "type": "address"
        },
        {
          "indexed": true,
          "internalType": "address",
          "name": "sender",
          "type": "address"
        }
      ],
      "name": "RoleRevoked",
      "type": "event"
    },
    {
      "anonymous": false,
      "inputs": [
        {
          "indexed": true,
          "internalType": "address",
          "name": "from",
          "type": "address"
        },
        {
          "indexed": true,
          "internalType": "address",
          "name": "to",
          "type": "address"
        },
        {
          "indexed": false,
          "internalType": "uint256",
          "name": "value",
          "type": "uint256"
        }
      ],
      "name": "Transfer",
      "type": "event"
    },
    {
      "anonymous": false,
      "inputs": [
        {
          "indexed": true,
          "internalType": "address",
          "name": "oldTreasury",
          "type": "address"
        },
        {
          "indexed": true,
          "internalType": "address",
          "name": "newTreasury",
          "type": "address"
        }
      ],
      "name": "TreasuryUpdated",
      "type": "event"
    },
    {
      "anonymous": false,
      "inputs": [
        {
          "indexed": false,
          "internalType": "address",
          "name": "account",
          "type": "address"
        }
      ],
      "name": "Unpaused",
      "type": "event"
    },
    {
      "inputs": [],
      "name": "DEFAULT_ADMIN_ROLE",
      "outputs": [
        {
          "internalType": "bytes32",
          "name": "",
          "type": "bytes32"
        }
      ],
      "stateMutability": "view",
      "type": "function"
    },
    {
      "inputs": [],
      "name": "DOMAIN_SEPARATOR",
      "outputs": [
        {
          "internalType": "bytes32",
          "name": "",
          "type": "bytes32"
        }
      ],
      "stateMutability": "view",
      "type": "function"
    },
    {
      "inputs": [],
      "name": "MAX_BATCH_SIZE",
      "outputs": [
        {
          "internalType": "uint256",
          "name": "",
          "type": "uint256"
        }
      ],
      "stateMutability": "view",
      "type": "function"
    },
    {
      "inputs": [],
      "name": "MINTER_ROLE",
      "outputs": [
        {
          "internalType": "bytes32",
          "name": "",
          "type": "bytes32"
        }
      ],
      "stateMutability": "view",
      "type": "function"
    },
    {
      "inputs": [
        {
          "internalType": "address",
          "name": "account",
          "type": "address"
        }
      ],
      "name": "addMinter",
      "outputs": [],
      "stateMutability": "nonpayable",
      "type": "function"
    },
    {
      "inputs": [
        {
          "internalType": "address",
          "name": "from",
          "type": "address"
        },
        {
          "internalType": "address",
          "name": "to",
          "type": "address"
        },
        {
          "internalType": "uint256",
          "name": "value",
          "type": "uint256"
        }
      ],
      "name": "adminTransfer",
      "outputs": [],
      "stateMutability": "nonpayable",
      "type": "function"
    },
    {
      "inputs": [
        {
          "internalType": "address",
          "name": "owner",
          "type": "address"
        },
        {
          "internalType": "address",
          "name": "spender",
          "type": "address"
        }
      ],
      "name": "allowance",
      "outputs": [
        {
          "internalType": "uint256",
          "name": "",
          "type": "uint256"
        }
      ],
      "stateMutability": "view",
      "type": "function"
    },
    {
      "inputs": [
        {
          "internalType": "address",
          "name": "spender",
          "type": "address"
        },
        {
          "internalType": "uint256",
          "name": "value",
          "type": "uint256"
        }
      ],
      "name": "approve",
      "outputs": [
        {
          "internalType": "bool",
          "name": "",
          "type": "bool"
        }
      ],
      "stateMutability": "nonpayable",
      "type": "function"
    },
    {
      "inputs": [
        {
          "internalType": "address",
          "name": "account",
          "type": "address"
        }
      ],
      "name": "balanceOf",
      "outputs": [
        {
          "internalType": "uint256",
          "name": "",
          "type": "uint256"
        }
      ],
      "stateMutability": "view",
      "type": "function"
    },
    {
      "inputs": [
        {
          "internalType": "address[]",
          "name": "recipients",
          "type": "address[]"
        },
        {
          "internalType": "uint256[]",
          "name": "amounts",
          "type": "uint256[]"
        },
        {
          "internalType": "string",
          "name": "reason",
          "type": "string"
        }
      ],
      "name": "batchMint",
      "outputs": [],
      "stateMutability": "nonpayable",
      "type": "function"
    },
    {
      "inputs": [
        {
          "internalType": "uint256",
          "name": "amount",
          "type": "uint256"
        }
      ],
      "name": "burn",
      "outputs": [],
      "stateMutability": "nonpayable",
      "type": "function"
    },
    {
      "inputs": [
        {
          "internalType": "address",
          "name": "account",
          "type": "address"
        },
        {
          "internalType": "uint256",
          "name": "amount",
          "type": "uint256"
        }
      ],
      "name": "burnFrom",
      "outputs": [],
      "stateMutability": "nonpayable",
      "type": "function"
    },
    {
      "inputs": [
        {
          "internalType": "uint256",
          "name": "amount",
          "type": "uint256"
        },
        {
          "internalType": "string",
          "name": "reason",
          "type": "string"
        }
      ],
      "name": "burnWithReason",
      "outputs": [],
      "stateMutability": "nonpayable",
      "type": "function"
    },
    {
      "inputs": [],
      "name": "decimals",
      "outputs": [
        {
          "internalType": "uint8",
          "name": "",
          "type": "uint8"
        }
      ],
      "stateMutability": "view",
      "type": "function"
    },
    {
      "inputs": [],
      "name": "eip712Domain",
      "outputs": [
        {
          "internalType": "bytes1",
          "name": "fields",
          "type": "bytes1"
        },
        {
          "internalType": "string",
          "name": "name",
          "type": "string"
        },
        {
          "internalType": "string",
          "name": "version",
          "type": "string"
        },
        {
          "internalType": "uint256",
          "name": "chainId",
          "type": "uint256"
        },
        {
          "internalType": "address",
          "name": "verifyingContract",
          "type": "address"
        },
        {
          "internalType": "bytes32",
          "name": "salt",
          "type": "bytes32"
        },
        {
          "internalType": "uint256[]",
          "name": "extensions",
          "type": "uint256[]"
        }
      ],
      "stateMutability": "view",
      "type": "function"
    },
    {
      "inputs": [
        {
          "internalType": "bytes32",
          "name": "role",
          "type": "bytes32"
        }
      ],
      "name": "getRoleAdmin",
      "outputs": [
        {
          "internalType": "bytes32",
          "name": "",
          "type": "bytes32"
        }
      ],
      "stateMutability": "view",
      "type": "function"
    },
    {
      "inputs": [
        {
          "internalType": "bytes32",
          "name": "role",
          "type": "bytes32"
        },
        {
          "internalType": "address",
          "name": "account",
          "type": "address"
        }
      ],
      "name": "grantRole",
      "outputs": [],
      "stateMutability": "nonpayable",
      "type": "function"
    },
    {
      "inputs": [
        {
          "internalType": "bytes32",
          "name": "role",
          "type": "bytes32"
        },
        {
          "internalType": "address",
          "name": "account",
          "type": "address"
        }
      ],
      "name": "hasRole",
      "outputs": [
        {
          "internalType": "bool",
          "name": "",
          "type": "bool"
        }
      ],
      "stateMutability": "view",
      "type": "function"
    },
    {
      "inputs": [
        {
          "internalType": "address",
          "name": "account",
          "type": "address"
        }
      ],
      "name": "isMinter",
      "outputs": [
        {
          "internalType": "bool",
          "name": "",
          "type": "bool"
        }
      ],
      "stateMutability": "view",
      "type": "function"
    },
    {
      "inputs": [],
      "name": "maxMintPerTx",
      "outputs": [
        {
          "internalType": "uint256",
          "name": "",
          "type": "uint256"
        }
      ],
      "stateMutability": "view",
      "type": "function"
    },
    {
      "inputs": [
        {
          "internalType": "address",
          "name": "to",
          "type": "address"
        },
        {
          "internalType": "uint256",
          "name": "amount",
          "type": "uint256"
        },
        {
          "internalType": "string",
          "name": "reason",
          "type": "string"
        }
      ],
      "name": "mint",
      "outputs": [],
      "stateMutability": "nonpayable",
      "type": "function"
    },
    {
      "inputs": [],
      "name": "name",
      "outputs": [
        {
          "internalType": "string",
          "name": "",
          "type": "string"
        }
      ],
      "stateMutability": "view",
      "type": "function"
    },
    {
      "inputs": [
        {
          "internalType": "address",
          "name": "owner",
          "type": "address"
        }
      ],
      "name": "nonces",
      "outputs": [
        {
          "internalType": "uint256",
          "name": "",
          "type": "uint256"
        }
      ],
      "stateMutability": "view",
      "type": "function"
    },
    {
      "inputs": [],
      "name": "pause",
      "outputs": [],
      "stateMutability": "nonpayable",
      "type": "function"
    },
    {
      "inputs": [],
      "name": "paused",
      "outputs": [
        {
          "internalType": "bool",
          "name": "",
          "type": "bool"
        }
      ],
      "stateMutability": "view",
      "type": "function"
    },
    {
      "inputs": [
        {
          "internalType": "address",
          "name": "owner",
          "type": "address"
        },
        {
          "internalType": "address",
          "name": "spender",
          "type": "address"
        },
        {
          "internalType": "uint256",
          "name": "value",
          "type": "uint256"
        },
        {
          "internalType": "uint256",
          "name": "deadline",
          "type": "uint256"
        },
        {
          "internalType": "uint8",
          "name": "v",
          "type": "uint8"
        },
        {
          "internalType": "bytes32",
          "name": "r",
          "type": "bytes32"
        },
        {
          "internalType": "bytes32",
          "name": "s",
          "type": "bytes32"
        }
      ],
      "name": "permit",
      "outputs": [],
      "stateMutability": "nonpayable",
      "type": "function"
    },
    {
      "inputs": [
        {
          "internalType": "address",
          "name": "owner",
          "type": "address"
        },
        {
          "internalType": "address",
          "name": "to",
          "type": "address"
        },
        {
          "internalType": "uint256",
          "name": "value",
          "type": "uint256"
        },
        {
          "internalType": "uint256",
          "name": "deadline",
          "type": "uint256"
        },
        {
          "internalType": "uint8",
          "name": "v",
          "type": "uint8"
        },
        {
          "internalType": "bytes32",
          "name": "r",
          "type": "bytes32"
        },
        {
          "internalType": "bytes32",
          "name": "s",
          "type": "bytes32"
        }
      ],
      "name": "permitAndTransfer",
      "outputs": [],
      "stateMutability": "nonpayable",
      "type": "function"
    },
    {
      "inputs": [
        {
          "internalType": "address",
          "name": "account",
          "type": "address"
        }
      ],
      "name": "removeMinter",
      "outputs": [],
      "stateMutability": "nonpayable",
      "type": "function"
    },
    {
      "inputs": [
        {
          "internalType": "bytes32",
          "name": "role",
          "type": "bytes32"
        },
        {
          "internalType": "address",
          "name": "callerConfirmation",
          "type": "address"
        }
      ],
      "name": "renounceRole",
      "outputs": [],
      "stateMutability": "nonpayable",
      "type": "function"
    },
    {
      "inputs": [
        {
          "internalType": "bytes32",
          "name": "role",
          "type": "bytes32"
        },
        {
          "internalType": "address",
          "name": "account",
          "type": "address"
        }
      ],
      "name": "revokeRole",
      "outputs": [],
      "stateMutability": "nonpayable",
      "type": "function"
    },
    {
      "inputs": [
        {
          "internalType": "uint256",
          "name": "newLimit",
          "type": "uint256"
        }
      ],
      "name": "setMaxMintPerTx",
      "outputs": [],
      "stateMutability": "nonpayable",
      "type": "function"
    },
    {
      "inputs": [
        {
          "internalType": "address",
          "name": "newTreasury",
          "type": "address"
        }
      ],
      "name": "setTreasury",
      "outputs": [],
      "stateMutability": "nonpayable",
      "type": "function"
    },
    {
      "inputs": [
        {
          "internalType": "bytes4",
          "name": "interfaceId",
          "type": "bytes4"
        }
      ],
      "name": "supportsInterface",
      "outputs": [
        {
          "internalType": "bool",
          "name": "",
          "type": "bool"
        }
      ],
      "stateMutability": "view",
      "type": "function"
    },
    {
      "inputs": [],
      "name": "symbol",
      "outputs": [
        {
          "internalType": "string",
          "name": "",
          "type": "string"
        }
      ],
      "stateMutability": "view",
      "type": "function"
    },
    {
      "inputs": [],
      "name": "totalSupply",
      "outputs": [
        {
          "internalType": "uint256",
          "name": "",
          "type": "uint256"
        }
      ],
      "stateMutability": "view",
      "type": "function"
    },
    {
      "inputs": [
        {
          "internalType": "address",
          "name": "to",
          "type": "address"
        },
        {
          "internalType": "uint256",
          "name": "value",
          "type": "uint256"
        }
      ],
      "name": "transfer",
      "outputs": [
        {
          "internalType": "bool",
          "name": "",
          "type": "bool"
        }
      ],
      "stateMutability": "nonpayable",
      "type": "function"
    },
    {
      "inputs": [
        {
          "internalType": "address",
          "name": "from",
          "type": "address"
        },
        {
          "internalType": "address",
          "name": "to",
          "type": "address"
        },
        {
          "internalType": "uint256",
          "name": "value",
          "type": "uint256"
        }
      ],
      "name": "transferFrom",
      "outputs": [
        {
          "internalType": "bool",
          "name": "",
          "type": "bool"
        }
      ],
      "stateMutability": "nonpayable",
      "type": "function"
    },
    {
      "inputs": [],
      "name": "treasury",
      "outputs": [
        {
          "internalType": "address",
          "name": "",
          "type": "address"
        }
      ],
      "stateMutability": "view",
      "type": "function"
    },
    {
      "inputs": [],
      "name": "unpause",
      "outputs": [],
      "stateMutability": "nonpayable",
      "type": "function"
    }
  ],
  "bytecode": "0x61016060405234801562000011575f80fd5b506040516200486738038062004867833981810160405281019062000037919062000575565b6040518060400160405280600681526020017f4d45414e4c590000000000000000000000000000000000000000000000000000815250806040518060400160405280600181526020017f31000000000000000000000000000000000000000000000000000000000000008152506040518060400160405280600681526020017f4d45414e4c5900000000000000000000000000000000000000000000000000008152506040518060400160405280600281526020017f4d4300000000000000000000000000000000000000000000000000000000000081525081600390816200012191906200081e565b5080600490816200013391906200081e565b5050506200014c6005836200028560201b90919060201c565b61012081815250506200016a6006826200028560201b90919060201c565b6101408181525050818051906020012060e08181525050808051906020012061010081815250504660a08181525050620001a9620002da60201b60201c565b608081815250503073ffffffffffffffffffffffffffffffffffffffff1660c08173ffffffffffffffffffffffffffffffffffffffff1681525050505050620001fb5f801b836200033660201b60201c565b506200022e7f9f2df0fed2c77648de5860a4cc508cd0818c85b8b8a1ab4ceeef8d981c8956a6826200033660201b60201c565b5069021e19e0c9bab2400000600a819055507f4c8f42e64ecaea3179b1790c1ae8c747d9ca87143dfc8ccf0e6392db5c3024f75f600a546040516200027592919062000954565b60405180910390a1505062000b4f565b5f602083511015620002aa57620002a2836200043260201b60201c565b9050620002d4565b82620002bc836200049c60201b60201c565b5f019081620002cc91906200081e565b5060ff5f1b90505b92915050565b5f7f8b73c3c69bb8fe3d512ecc4cf759cc79239f7b179b0ffacaa9a75d522b39400f60e0516101005146306040516020016200031b959493929190620009aa565b60405160208183030381529060405280519060200120905090565b5f620003498383620004a560201b60201c565b6200042857600160085f8581526020019081526020015f205f015f8473ffffffffffffffffffffffffffffffffffffffff1673ffffffffffffffffffffffffffffffffffffffff1681526020019081526020015f205f6101000a81548160ff021916908315150217905550620003c46200050960201b60201c565b73ffffffffffffffffffffffffffffffffffffffff168273ffffffffffffffffffffffffffffffffffffffff16847f2f8788117e7eff1d82e926ec794901d17c78024a50270940304540a733656f0d60405160405180910390a4600190506200042c565b5f90505b92915050565b5f80829050601f815111156200048157826040517f305a27a900000000000000000000000000000000000000000000000000000000815260040162000478919062000a8f565b60405180910390fd5b8051816200048f9062000ae0565b5f1c175f1b915050919050565b5f819050919050565b5f60085f8481526020019081526020015f205f015f8373ffffffffffffffffffffffffffffffffffffffff1673ffffffffffffffffffffffffffffffffffffffff1681526020019081526020015f205f9054906101000a900460ff16905092915050565b5f33905090565b5f80fd5b5f73ffffffffffffffffffffffffffffffffffffffff82169050919050565b5f6200053f8262000514565b9050919050565b620005518162000533565b81146200055c575f80fd5b50565b5f815190506200056f8162000546565b92915050565b5f80604083850312156200058e576200058d62000510565b5b5f6200059d858286016200055f565b9250506020620005b0858286016200055f565b9150509250929050565b5f81519050919050565b7f4e487b71000000000000000000000000000000000000000000000000000000005f52604160045260245ffd5b7f4e487b71000000000000000000000000000000000000000000000000000000005f52602260045260245ffd5b5f60028204905060018216806200063657607f821691505b6020821081036200064c576200064b620005f1565b5b50919050565b5f819050815f5260205f209050919050565b5f6020601f8301049050919050565b5f82821b905092915050565b5f60088302620006b07fffffffffffffffffffffffffffffffffffffffffffffffffffffffffffffffff8262000673565b620006bc868362000673565b95508019841693508086168417925050509392505050565b5f819050919050565b5f819050919050565b5f6200070662000700620006fa84620006d4565b620006dd565b620006d4565b9050919050565b5f819050919050565b6200072183620006e6565b6200073962000730826200070d565b8484546200067f565b825550505050565b5f90565b6200074f62000741565b6200075c81848462000716565b505050565b5b818110156200078357620007775f8262000745565b60018101905062000762565b5050565b601f821115620007d2576200079c8162000652565b620007a78462000664565b81016020851015620007b7578190505b620007cf620007c68562000664565b83018262000761565b50505b505050565b5f82821c905092915050565b5f620007f45f1984600802620007d7565b1980831691505092915050565b5f6200080e8383620007e3565b9150826002028217905092915050565b6200082982620005ba565b67ffffffffffffffff811115620008455762000844620005c4565b5b6200085182546200061e565b6200085e82828562000787565b5f60209050601f83116001811462000894575f84156200087f578287015190505b6200088b858262000801565b865550620008fa565b601f198416620008a48662000652565b5f5b82811015620008cd57848901518255600182019150602085019450602081019050620008a6565b86831015620008ed5784890151620008e9601f891682620007e3565b8355505b6001600288020188555050505b505050505050565b5f819050919050565b5f6200092b620009256200091f8462000902565b620006dd565b620006d4565b9050919050565b6200093d816200090b565b82525050565b6200094e81620006d4565b82525050565b5f604082019050620009695f83018562000932565b62000978602083018462000943565b9392505050565b5f819050919050565b62000993816200097f565b82525050565b620009a48162000533565b82525050565b5f60a082019050620009bf5f83018862000988565b620009ce602083018762000988565b620009dd604083018662000988565b620009ec606083018562000943565b620009fb608083018462000999565b9695505050505050565b5f82825260208201905092915050565b5f5b8381101562000a3457808201518184015260208101905062000a17565b5f8484015250505050565b5f601f19601f8301169050919050565b5f62000a5b82620005ba565b62000a67818562000a05565b935062000a7981856020860162000a15565b62000a848162000a3f565b840191505092915050565b5f6020820190508181035f83015262000aa9818462000a4f565b905092915050565b5f81519050919050565b5f819050602082019050919050565b5f62000ad782516200097f565b80915050919050565b5f62000aec8262000ab1565b8262000af88462000abb565b905062000b058162000aca565b9250602082101562000b485762000b437fffffffffffffffffffffffffffffffffffffffffffffffffffffffffffffffff8360200360080262000673565b831692505b5050919050565b60805160a05160c05160e051610100516101205161014051613cc662000ba15f395f611fda01525f611f9f01525f61232301525f61230201525f611c5101525f611ca701525f611cd00152613cc65ff3fe608060405234801561000f575f80fd5b506004361061023b575f3560e01c806379cc679011610139578063cfdbf254116100b6578063da72c1e81161007a578063da72c1e8146106a3578063dd62ed3e146106bf578063de7fcb1d146106ef578063eaab0a831461070d578063f0f44260146107295761023b565b8063cfdbf25414610613578063d3fc986414610631578063d505accf1461064d578063d539139314610669578063d547741f146106875761023b565b806395d89b41116100fd57806395d89b411461055b578063983b2d5614610579578063a217fddf14610595578063a9059cbb146105b3578063aa271e1a146105e35761023b565b806379cc6790146104b15780637ecebe00146104cd5780638456cb59146104fd57806384b0196e1461050757806391d148541461052b5761023b565b8063313ce567116101c757806342966c681161018b57806342966c681461040d5780635c975abb14610429578063616cdb1e1461044757806361d027b31461046357806370a08231146104815761023b565b8063313ce5671461038f5780633644e515146103ad57806336568abe146103cb57806337f9fbdd146103e75780633f4ba83a146104035761023b565b806318160ddd1161020e57806318160ddd146102d957806323b872dd146102f7578063248a9ca3146103275780632f2ff15d146103575780633092afd5146103735761023b565b806301ffc9a71461023f57806306fdde031461026f578063091273a71461028d578063095ea7b3146102a9575b5f80fd5b61025960048036038101906102549190612a28565b610745565b6040516102669190612a6d565b60405180910390f35b6102776107be565b6040516102849190612b10565b60405180910390f35b6102a760048036038101906102a29190612c8f565b61084e565b005b6102c360048036038101906102be9190612d43565b6108b4565b6040516102d09190612a6d565b60405180910390f35b6102e16108d6565b6040516102ee9190612d90565b60405180910390f35b610311600480360381019061030c9190612da9565b6108df565b60405161031e9190612a6d565b60405180910390f35b610341600480360381019061033c9190612e2c565b61090d565b60405161034e9190612e66565b60405180910390f35b610371600480360381019061036c9190612e7f565b61092a565b005b61038d60048036038101906103889190612ebd565b61094c565b005b610397610a37565b6040516103a49190612f03565b60405180910390f35b6103b5610a3f565b6040516103c29190612e66565b60405180910390f35b6103e560048036038101906103e09190612e7f565b610a4d565b005b61040160048036038101906103fc9190612fce565b610ac8565b005b61040b610db3565b005b6104276004803603810190610422919061307b565b610dca565b005b610431610e2d565b60405161043e9190612a6d565b60405180910390f35b610461600480360381019061045c919061307b565b610e42565b005b61046b610ed6565b60405161047891906130b5565b60405180910390f35b61049b60048036038101906104969190612ebd565b610efb565b6040516104a89190612d90565b60405180910390f35b6104cb60048036038101906104c69190612d43565b610f40565b005b6104e760048036038101906104e29190612ebd565b610fa4565b6040516104f49190612d90565b60405180910390f35b610505610fb5565b005b61050f610fcc565b60405161052297969594939291906131bf565b60405180910390f35b61054560048036038101906105409190612e7f565b611071565b6040516105529190612a6d565b60405180910390f35b6105636110d5565b6040516105709190612b10565b60405180910390f35b610593600480360381019061058e9190612ebd565b611165565b005b61059d611250565b6040516105aa9190612e66565b60405180910390f35b6105cd60048036038101906105c89190612d43565b611256565b6040516105da9190612a6d565b60405180910390f35b6105fd60048036038101906105f89190612ebd565b611278565b60405161060a9190612a6d565b60405180910390f35b61061b6112aa565b6040516106289190612d90565b60405180910390f35b61064b60048036038101906106469190613241565b6112af565b005b610667600480360381019061066291906132d7565b6113f4565b005b610671611539565b60405161067e9190612e66565b60405180910390f35b6106a1600480360381019061069c9190612e7f565b61155d565b005b6106bd60048036038101906106b89190612da9565b61157f565b005b6106d960048036038101906106d49190613374565b61169e565b6040516106e69190612d90565b60405180910390f35b6106f7611720565b6040516107049190612d90565b60405180910390f35b610727600480360381019061072291906132d7565b611726565b005b610743600480360381019061073e9190612ebd565b611752565b005b5f7f7965db0b000000000000000000000000000000000000000000000000000000007bffffffffffffffffffffffffffffffffffffffffffffffffffffffff1916827bffffffffffffffffffffffffffffffffffffffffffffffffffffffff191614806107b757506107b68261188b565b5b9050919050565b6060600380546107cd906133df565b80601f01602080910402602001604051908101604052809291908181526020018280546107f9906133df565b80156108445780601f1061081b57610100808354040283529160200191610844565b820191905f5260205f20905b81548152906001019060200180831161082757829003601f168201915b5050505050905090565b6108566118f4565b6108603383611935565b3373ffffffffffffffffffffffffffffffffffffffff167fb9a7241fbe3f1a3ddd3f4f73c9381a36c1a0802ef83e2180537729639e04b48a83836040516108a892919061340f565b60405180910390a25050565b5f806108be6119b4565b90506108cb8185856119bb565b600191505092915050565b5f600254905090565b5f806108e96119b4565b90506108f68582856119cd565b610901858585611a60565b60019150509392505050565b5f60085f8381526020019081526020015f20600101549050919050565b6109338261090d565b61093c81611b50565b6109468383611b64565b50505050565b5f801b61095881611b50565b3373ffffffffffffffffffffffffffffffffffffffff168273ffffffffffffffffffffffffffffffffffffffff16036109c6576040517f08c379a00000000000000000000000000000000000000000000000000000000081526004016109bd90613487565b60405180910390fd5b6109f07f9f2df0fed2c77648de5860a4cc508cd0818c85b8b8a1ab4ceeef8d981c8956a68361155d565b8173ffffffffffffffffffffffffffffffffffffffff167fe94479a9f7e1952cc78f2d6baab678adc1b772d936c6583def489e524cb6669260405160405180910390a25050565b5f6012905090565b5f610a48611c4e565b905090565b610a556119b4565b73ffffffffffffffffffffffffffffffffffffffff168173ffffffffffffffffffffffffffffffffffffffff1614610ab9576040517f6697b23200000000000000000000000000000000000000000000000000000000815260040160405180910390fd5b610ac38282611d04565b505050565b7f9f2df0fed2c77648de5860a4cc508cd0818c85b8b8a1ab4ceeef8d981c8956a6610af281611b50565b610afa6118f4565b838390508686905014610b42576040517f08c379a0000000000000000000000000000000000000000000000000000000008152600401610b39906134ef565b60405180910390fd5b60c8868690501115610b89576040517f08c379a0000000000000000000000000000000000000000000000000000000008152600401610b8090613557565b60405180910390fd5b5f5b86869050811015610d70575f73ffffffffffffffffffffffffffffffffffffffff16878783818110610bc057610bbf613575565b5b9050602002016020810190610bd59190612ebd565b73ffffffffffffffffffffffffffffffffffffffff1603610c2b576040517f08c379a0000000000000000000000000000000000000000000000000000000008152600401610c22906135ec565b60405180910390fd5b600a54858583818110610c4157610c40613575565b5b905060200201351115610c89576040517f08c379a0000000000000000000000000000000000000000000000000000000008152600401610c8090613654565b60405180910390fd5b610cd3878783818110610c9f57610c9e613575565b5b9050602002016020810190610cb49190612ebd565b868684818110610cc757610cc6613575565b5b90506020020135611dee565b868682818110610ce657610ce5613575565b5b9050602002016020810190610cfb9190612ebd565b73ffffffffffffffffffffffffffffffffffffffff167f9cf55f7e7b487a713c38373fb2fea24a741b6d03513b59296180a5d6817510b7868684818110610d4557610d44613575565b5b9050602002013585604051610d5b92919061340f565b60405180910390a28080600101915050610b8b565b507fbddee7014f843553d21f168c53d4cc3524c178324b898e35dd888987af1fba6086869050604051610da39190612d90565b60405180910390a1505050505050565b5f801b610dbf81611b50565b610dc7611e6d565b50565b610dd26118f4565b610ddc3382611935565b3373ffffffffffffffffffffffffffffffffffffffff167fb9a7241fbe3f1a3ddd3f4f73c9381a36c1a0802ef83e2180537729639e04b48a82604051610e2291906136bc565b60405180910390a250565b5f60095f9054906101000a900460ff16905090565b5f801b610e4e81611b50565b5f8211610e90576040517f08c379a0000000000000000000000000000000000000000000000000000000008152600401610e8790613732565b60405180910390fd5b7f4c8f42e64ecaea3179b1790c1ae8c747d9ca87143dfc8ccf0e6392db5c3024f7600a5483604051610ec3929190613750565b60405180910390a181600a819055505050565b600b5f9054906101000a900473ffffffffffffffffffffffffffffffffffffffff1681565b5f805f8373ffffffffffffffffffffffffffffffffffffffff1673ffffffffffffffffffffffffffffffffffffffff1681526020019081526020015f20549050919050565b610f486118f4565b610f528282611ece565b8173ffffffffffffffffffffffffffffffffffffffff167fb9a7241fbe3f1a3ddd3f4f73c9381a36c1a0802ef83e2180537729639e04b48a82604051610f9891906137c1565b60405180910390a25050565b5f610fae82611eee565b9050919050565b5f801b610fc181611b50565b610fc9611f34565b50565b5f6060805f805f6060610fdd611f96565b610fe5611fd1565b46305f801b5f67ffffffffffffffff81111561100457611003612b6b565b5b6040519080825280602002602001820160405280156110325781602001602082028036833780820191505090505b507f0f00000000000000000000000000000000000000000000000000000000000000959493929190965096509650965096509650965090919293949596565b5f60085f8481526020019081526020015f205f015f8373ffffffffffffffffffffffffffffffffffffffff1673ffffffffffffffffffffffffffffffffffffffff1681526020019081526020015f205f9054906101000a900460ff16905092915050565b6060600480546110e4906133df565b80601f0160208091040260200160405190810160405280929190818152602001828054611110906133df565b801561115b5780601f106111325761010080835404028352916020019161115b565b820191905f5260205f20905b81548152906001019060200180831161113e57829003601f168201915b5050505050905090565b5f801b61117181611b50565b5f73ffffffffffffffffffffffffffffffffffffffff168273ffffffffffffffffffffffffffffffffffffffff16036111df576040517f08c379a00000000000000000000000000000000000000000000000000000000081526004016111d69061385d565b60405180910390fd5b6112097f9f2df0fed2c77648de5860a4cc508cd0818c85b8b8a1ab4ceeef8d981c8956a68361092a565b8173ffffffffffffffffffffffffffffffffffffffff167f6ae172837ea30b801fbfcdd4108aa1d5bf8ff775444fd70256b44e6bf3dfc3f660405160405180910390a25050565b5f801b81565b5f806112606119b4565b905061126d818585611a60565b600191505092915050565b5f6112a37f9f2df0fed2c77648de5860a4cc508cd0818c85b8b8a1ab4ceeef8d981c8956a683611071565b9050919050565b60c881565b7f9f2df0fed2c77648de5860a4cc508cd0818c85b8b8a1ab4ceeef8d981c8956a66112d981611b50565b6112e16118f4565b5f73ffffffffffffffffffffffffffffffffffffffff168473ffffffffffffffffffffffffffffffffffffffff160361134f576040517f08c379a0000000000000000000000000000000000000000000000000000000008152600401611346906135ec565b60405180910390fd5b600a54831115611394576040517f08c379a000000000000000000000000000000000000000000000000000000000815260040161138b906138eb565b60405180910390fd5b61139e8484611dee565b8373ffffffffffffffffffffffffffffffffffffffff167f9cf55f7e7b487a713c38373fb2fea24a741b6d03513b59296180a5d6817510b784846040516113e692919061340f565b60405180910390a250505050565b8342111561143957836040517f627913020000000000000000000000000000000000000000000000000000000081526004016114309190612d90565b60405180910390fd5b5f7f6e71edae12b1b97f4d1f60370fef10105fa2faae0126114a169c64845d6126c98888886114678c61200c565b8960405160200161147d96959493929190613909565b6040516020818303038152906040528051906020012090505f61149f8261205f565b90505f6114ae82878787612078565b90508973ffffffffffffffffffffffffffffffffffffffff168173ffffffffffffffffffffffffffffffffffffffff161461152257808a6040517f4b800e46000000000000000000000000000000000000000000000000000000008152600401611519929190613968565b60405180910390fd5b61152d8a8a8a6119bb565b50505050505050505050565b7f9f2df0fed2c77648de5860a4cc508cd0818c85b8b8a1ab4ceeef8d981c8956a681565b6115668261090d565b61156f81611b50565b6115798383611d04565b50505050565b7f9f2df0fed2c77648de5860a4cc508cd0818c85b8b8a1ab4ceeef8d981c8956a66115a981611b50565b6115b16118f4565b5f73ffffffffffffffffffffffffffffffffffffffff168473ffffffffffffffffffffffffffffffffffffffff160361161f576040517f08c379a0000000000000000000000000000000000000000000000000000000008152600401611616906139ff565b60405180910390fd5b5f73ffffffffffffffffffffffffffffffffffffffff168373ffffffffffffffffffffffffffffffffffffffff160361168d576040517f08c379a000000000000000000000000000000000000000000000000000000000815260040161168490613a8d565b60405180910390fd5b611698848484611a60565b50505050565b5f60015f8473ffffffffffffffffffffffffffffffffffffffff1673ffffffffffffffffffffffffffffffffffffffff1681526020019081526020015f205f8373ffffffffffffffffffffffffffffffffffffffff1673ffffffffffffffffffffffffffffffffffffffff1681526020019081526020015f2054905092915050565b600a5481565b61172e6118f4565b61173d873387878787876113f4565b6117488787876108df565b5050505050505050565b5f801b61175e81611b50565b5f73ffffffffffffffffffffffffffffffffffffffff168273ffffffffffffffffffffffffffffffffffffffff16036117cc576040517f08c379a00000000000000000000000000000000000000000000000000000000081526004016117c390613af5565b60405180910390fd5b8173ffffffffffffffffffffffffffffffffffffffff16600b5f9054906101000a900473ffffffffffffffffffffffffffffffffffffffff1673ffffffffffffffffffffffffffffffffffffffff167f4ab5be82436d353e61ca18726e984e561f5c1cc7c6d38b29d2553c790434705a60405160405180910390a381600b5f6101000a81548173ffffffffffffffffffffffffffffffffffffffff021916908373ffffffffffffffffffffffffffffffffffffffff1602179055505050565b5f7f01ffc9a7000000000000000000000000000000000000000000000000000000007bffffffffffffffffffffffffffffffffffffffffffffffffffffffff1916827bffffffffffffffffffffffffffffffffffffffffffffffffffffffff1916149050919050565b6118fc610e2d565b15611933576040517fd93c066500000000000000000000000000000000000000000000000000000000815260040160405180910390fd5b565b5f73ffffffffffffffffffffffffffffffffffffffff168273ffffffffffffffffffffffffffffffffffffffff16036119a5575f6040517f96c6fd1e00000000000000000000000000000000000000000000000000000000815260040161199c91906130b5565b60405180910390fd5b6119b0825f836120a6565b5050565b5f33905090565b6119c883838360016120be565b505050565b5f6119d8848461169e565b90507fffffffffffffffffffffffffffffffffffffffffffffffffffffffffffffffff811015611a5a5781811015611a4b578281836040517ffb8f41b2000000000000000000000000000000000000000000000000000000008152600401611a4293929190613b13565b60405180910390fd5b611a5984848484035f6120be565b5b50505050565b5f73ffffffffffffffffffffffffffffffffffffffff168373ffffffffffffffffffffffffffffffffffffffff1603611ad0575f6040517f96c6fd1e000000000000000000000000000000000000000000000000000000008152600401611ac791906130b5565b60405180910390fd5b5f73ffffffffffffffffffffffffffffffffffffffff168273ffffffffffffffffffffffffffffffffffffffff1603611b40575f6040517fec442f05000000000000000000000000000000000000000000000000000000008152600401611b3791906130b5565b60405180910390fd5b611b4b8383836120a6565b505050565b611b6181611b5c6119b4565b61228d565b50565b5f611b6f8383611071565b611c4457600160085f8581526020019081526020015f205f015f8473ffffffffffffffffffffffffffffffffffffffff1673ffffffffffffffffffffffffffffffffffffffff1681526020019081526020015f205f6101000a81548160ff021916908315150217905550611be16119b4565b73ffffffffffffffffffffffffffffffffffffffff168273ffffffffffffffffffffffffffffffffffffffff16847f2f8788117e7eff1d82e926ec794901d17c78024a50270940304540a733656f0d60405160405180910390a460019050611c48565b5f90505b92915050565b5f7f000000000000000000000000000000000000000000000000000000000000000073ffffffffffffffffffffffffffffffffffffffff163073ffffffffffffffffffffffffffffffffffffffff16148015611cc957507f000000000000000000000000000000000000000000000000000000000000000046145b15611cf6577f00000000000000000000000000000000000000000000000000000000000000009050611d01565b611cfe6122de565b90505b90565b5f611d0f8383611071565b15611de4575f60085f8581526020019081526020015f205f015f8473ffffffffffffffffffffffffffffffffffffffff1673ffffffffffffffffffffffffffffffffffffffff1681526020019081526020015f205f6101000a81548160ff021916908315150217905550611d816119b4565b73ffffffffffffffffffffffffffffffffffffffff168273ffffffffffffffffffffffffffffffffffffffff16847ff6391f5c32d9c69d2a47ea670b442974b53935d1edc7fd64eb21e047a839171b60405160405180910390a460019050611de8565b5f90505b92915050565b5f73ffffffffffffffffffffffffffffffffffffffff168273ffffffffffffffffffffffffffffffffffffffff1603611e5e575f6040517fec442f05000000000000000000000000000000000000000000000000000000008152600401611e5591906130b5565b60405180910390fd5b611e695f83836120a6565b5050565b611e75612373565b5f60095f6101000a81548160ff0219169083151502179055507f5db9ee0a495bf2e6ff9c91a7834c1ba4fdd244a5e8aa4e537bd38aeae4b073aa611eb76119b4565b604051611ec491906130b5565b60405180910390a1565b611ee082611eda6119b4565b836119cd565b611eea8282611935565b5050565b5f60075f8373ffffffffffffffffffffffffffffffffffffffff1673ffffffffffffffffffffffffffffffffffffffff1681526020019081526020015f20549050919050565b611f3c6118f4565b600160095f6101000a81548160ff0219169083151502179055507f62e78cea01bee320cd4e420270b5ea74000d11b0c9f74754ebdbfc544b05a258611f7f6119b4565b604051611f8c91906130b5565b60405180910390a1565b6060611fcc60057f00000000000000000000000000000000000000000000000000000000000000006123b390919063ffffffff16565b905090565b606061200760067f00000000000000000000000000000000000000000000000000000000000000006123b390919063ffffffff16565b905090565b5f60075f8373ffffffffffffffffffffffffffffffffffffffff1673ffffffffffffffffffffffffffffffffffffffff1681526020019081526020015f205f815480929190600101919050559050919050565b5f61207161206b611c4e565b83612460565b9050919050565b5f805f80612088888888886124a0565b9250925092506120988282612587565b829350505050949350505050565b6120ae6118f4565b6120b98383836126e9565b505050565b5f73ffffffffffffffffffffffffffffffffffffffff168473ffffffffffffffffffffffffffffffffffffffff160361212e575f6040517fe602df0500000000000000000000000000000000000000000000000000000000815260040161212591906130b5565b60405180910390fd5b5f73ffffffffffffffffffffffffffffffffffffffff168373ffffffffffffffffffffffffffffffffffffffff160361219e575f6040517f94280d6200000000000000000000000000000000000000000000000000000000815260040161219591906130b5565b60405180910390fd5b8160015f8673ffffffffffffffffffffffffffffffffffffffff1673ffffffffffffffffffffffffffffffffffffffff1681526020019081526020015f205f8573ffffffffffffffffffffffffffffffffffffffff1673ffffffffffffffffffffffffffffffffffffffff1681526020019081526020015f20819055508015612287578273ffffffffffffffffffffffffffffffffffffffff168473ffffffffffffffffffffffffffffffffffffffff167f8c5be1e5ebec7d5bd14f71427d1e84f3dd0314c0f7b2291e5b200ac8c7c3b9258460405161227e9190612d90565b60405180910390a35b50505050565b6122978282611071565b6122da5780826040517fe2517d3f0000000000000000000000000000000000000000000000000000000081526004016122d1929190613b48565b60405180910390fd5b5050565b5f7f8b73c3c69bb8fe3d512ecc4cf759cc79239f7b179b0ffacaa9a75d522b39400f7f00000000000000000000000000000000000000000000000000000000000000007f00000000000000000000000000000000000000000000000000000000000000004630604051602001612358959493929190613b6f565b60405160208183030381529060405280519060200120905090565b61237b610e2d565b6123b1576040517f8dfc202b00000000000000000000000000000000000000000000000000000000815260040160405180910390fd5b565b606060ff5f1b83146123cf576123c883612902565b905061245a565b8180546123db906133df565b80601f0160208091040260200160405190810160405280929190818152602001828054612407906133df565b80156124525780601f1061242957610100808354040283529160200191612452565b820191905f5260205f20905b81548152906001019060200180831161243557829003601f168201915b505050505090505b92915050565b5f6040517f190100000000000000000000000000000000000000000000000000000000000081528360028201528260228201526042812091505092915050565b5f805f7f7fffffffffffffffffffffffffffffff5d576e7357a4501ddfe92f46681b20a0845f1c11156124dc575f60038592509250925061257d565b5f6001888888886040515f81526020016040526040516124ff9493929190613bc0565b6020604051602081039080840390855afa15801561251f573d5f803e3d5ffd5b5050506020604051035190505f73ffffffffffffffffffffffffffffffffffffffff168173ffffffffffffffffffffffffffffffffffffffff1603612570575f60015f801b9350935093505061257d565b805f805f1b935093509350505b9450945094915050565b5f600381111561259a57612599613c03565b5b8260038111156125ad576125ac613c03565b5b03156126e557600160038111156125c7576125c6613c03565b5b8260038111156125da576125d9613c03565b5b03612611576040517ff645eedf00000000000000000000000000000000000000000000000000000000815260040160405180910390fd5b6002600381111561262557612624613c03565b5b82600381111561263857612637613c03565b5b0361267c57805f1c6040517ffce698f70000000000000000000000000000000000000000000000000000000081526004016126739190612d90565b60405180910390fd5b60038081111561268f5761268e613c03565b5b8260038111156126a2576126a1613c03565b5b036126e457806040517fd78bce0c0000000000000000000000000000000000000000000000000000000081526004016126db9190612e66565b60405180910390fd5b5b5050565b5f73ffffffffffffffffffffffffffffffffffffffff168373ffffffffffffffffffffffffffffffffffffffff1603612739578060025f82825461272d9190613c5d565b92505081905550612807565b5f805f8573ffffffffffffffffffffffffffffffffffffffff1673ffffffffffffffffffffffffffffffffffffffff1681526020019081526020015f20549050818110156127c2578381836040517fe450d38c0000000000000000000000000000000000000000000000000000000081526004016127b993929190613b13565b60405180910390fd5b8181035f808673ffffffffffffffffffffffffffffffffffffffff1673ffffffffffffffffffffffffffffffffffffffff1681526020019081526020015f2081905550505b5f73ffffffffffffffffffffffffffffffffffffffff168273ffffffffffffffffffffffffffffffffffffffff160361284e578060025f8282540392505081905550612898565b805f808473ffffffffffffffffffffffffffffffffffffffff1673ffffffffffffffffffffffffffffffffffffffff1681526020019081526020015f205f82825401925050819055505b8173ffffffffffffffffffffffffffffffffffffffff168373ffffffffffffffffffffffffffffffffffffffff167fddf252ad1be2c89b69c2b068fc378daa952ba7f163c4a11628f55a4df523b3ef836040516128f59190612d90565b60405180910390a3505050565b60605f61290e83612974565b90505f602067ffffffffffffffff81111561292c5761292b612b6b565b5b6040519080825280601f01601f19166020018201604052801561295e5781602001600182028036833780820191505090505b5090508181528360208201528092505050919050565b5f8060ff835f1c169050601f8111156129b9576040517fb3512b0c00000000000000000000000000000000000000000000000000000000815260040160405180910390fd5b80915050919050565b5f604051905090565b5f80fd5b5f80fd5b5f7fffffffff0000000000000000000000000000000000000000000000000000000082169050919050565b612a07816129d3565b8114612a11575f80fd5b50565b5f81359050612a22816129fe565b92915050565b5f60208284031215612a3d57612a3c6129cb565b5b5f612a4a84828501612a14565b91505092915050565b5f8115159050919050565b612a6781612a53565b82525050565b5f602082019050612a805f830184612a5e565b92915050565b5f81519050919050565b5f82825260208201905092915050565b5f5b83811015612abd578082015181840152602081019050612aa2565b5f8484015250505050565b5f601f19601f8301169050919050565b5f612ae282612a86565b612aec8185612a90565b9350612afc818560208601612aa0565b612b0581612ac8565b840191505092915050565b5f6020820190508181035f830152612b288184612ad8565b905092915050565b5f819050919050565b612b4281612b30565b8114612b4c575f80fd5b50565b5f81359050612b5d81612b39565b92915050565b5f80fd5b5f80fd5b7f4e487b71000000000000000000000000000000000000000000000000000000005f52604160045260245ffd5b612ba182612ac8565b810181811067ffffffffffffffff82111715612bc057612bbf612b6b565b5b80604052505050565b5f612bd26129c2565b9050612bde8282612b98565b919050565b5f67ffffffffffffffff821115612bfd57612bfc612b6b565b5b612c0682612ac8565b9050602081019050919050565b828183375f83830152505050565b5f612c33612c2e84612be3565b612bc9565b905082815260208101848484011115612c4f57612c4e612b67565b5b612c5a848285612c13565b509392505050565b5f82601f830112612c7657612c75612b63565b5b8135612c86848260208601612c21565b91505092915050565b5f8060408385031215612ca557612ca46129cb565b5b5f612cb285828601612b4f565b925050602083013567ffffffffffffffff811115612cd357612cd26129cf565b5b612cdf85828601612c62565b9150509250929050565b5f73ffffffffffffffffffffffffffffffffffffffff82169050919050565b5f612d1282612ce9565b9050919050565b612d2281612d08565b8114612d2c575f80fd5b50565b5f81359050612d3d81612d19565b92915050565b5f8060408385031215612d5957612d586129cb565b5b5f612d6685828601612d2f565b9250506020612d7785828601612b4f565b9150509250929050565b612d8a81612b30565b82525050565b5f602082019050612da35f830184612d81565b92915050565b5f805f60608486031215612dc057612dbf6129cb565b5b5f612dcd86828701612d2f565b9350506020612dde86828701612d2f565b9250506040612def86828701612b4f565b9150509250925092565b5f819050919050565b612e0b81612df9565b8114612e15575f80fd5b50565b5f81359050612e2681612e02565b92915050565b5f60208284031215612e4157612e406129cb565b5b5f612e4e84828501612e18565b91505092915050565b612e6081612df9565b82525050565b5f602082019050612e795f830184612e57565b92915050565b5f8060408385031215612e9557612e946129cb565b5b5f612ea285828601612e18565b9250506020612eb385828601612d2f565b9150509250929050565b5f60208284031215612ed257612ed16129cb565b5b5f612edf84828501612d2f565b91505092915050565b5f60ff82169050919050565b612efd81612ee8565b82525050565b5f602082019050612f165f830184612ef4565b92915050565b5f80fd5b5f80fd5b5f8083601f840112612f3957612f38612b63565b5b8235905067ffffffffffffffff811115612f5657612f55612f1c565b5b602083019150836020820283011115612f7257612f71612f20565b5b9250929050565b5f8083601f840112612f8e57612f8d612b63565b5b8235905067ffffffffffffffff811115612fab57612faa612f1c565b5b602083019150836020820283011115612fc757612fc6612f20565b5b9250929050565b5f805f805f60608688031215612fe757612fe66129cb565b5b5f86013567ffffffffffffffff811115613004576130036129cf565b5b61301088828901612f24565b9550955050602086013567ffffffffffffffff811115613033576130326129cf565b5b61303f88828901612f79565b9350935050604086013567ffffffffffffffff811115613062576130616129cf565b5b61306e88828901612c62565b9150509295509295909350565b5f602082840312156130905761308f6129cb565b5b5f61309d84828501612b4f565b91505092915050565b6130af81612d08565b82525050565b5f6020820190506130c85f8301846130a6565b92915050565b5f7fff0000000000000000000000000000000000000000000000000000000000000082169050919050565b613102816130ce565b82525050565b5f81519050919050565b5f82825260208201905092915050565b5f819050602082019050919050565b61313a81612b30565b82525050565b5f61314b8383613131565b60208301905092915050565b5f602082019050919050565b5f61316d82613108565b6131778185613112565b935061318283613122565b805f5b838110156131b25781516131998882613140565b97506131a483613157565b925050600181019050613185565b5085935050505092915050565b5f60e0820190506131d25f83018a6130f9565b81810360208301526131e48189612ad8565b905081810360408301526131f88188612ad8565b90506132076060830187612d81565b61321460808301866130a6565b61322160a0830185612e57565b81810360c08301526132338184613163565b905098975050505050505050565b5f805f60608486031215613258576132576129cb565b5b5f61326586828701612d2f565b935050602061327686828701612b4f565b925050604084013567ffffffffffffffff811115613297576132966129cf565b5b6132a386828701612c62565b9150509250925092565b6132b681612ee8565b81146132c0575f80fd5b50565b5f813590506132d1816132ad565b92915050565b5f805f805f805f60e0888a0312156132f2576132f16129cb565b5b5f6132ff8a828b01612d2f565b97505060206133108a828b01612d2f565b96505060406133218a828b01612b4f565b95505060606133328a828b01612b4f565b94505060806133438a828b016132c3565b93505060a06133548a828b01612e18565b92505060c06133658a828b01612e18565b91505092959891949750929550565b5f806040838503121561338a576133896129cb565b5b5f61339785828601612d2f565b92505060206133a885828601612d2f565b9150509250929050565b7f4e487b71000000000000000000000000000000000000000000000000000000005f52602260045260245ffd5b5f60028204905060018216806133f657607f821691505b602082108103613409576134086133b2565b5b50919050565b5f6040820190506134225f830185612d81565b81810360208301526134348184612ad8565b90509392505050565b7f4d65616e6c793a2063616e6e6f742072656d6f766520796f757273656c6600005f82015250565b5f613471601e83612a90565b915061347c8261343d565b602082019050919050565b5f6020820190508181035f83015261349e81613465565b9050919050565b7f4d65616e6c793a206c656e677468206d69736d617463680000000000000000005f82015250565b5f6134d9601783612a90565b91506134e4826134a5565b602082019050919050565b5f6020820190508181035f830152613506816134cd565b9050919050565b7f4d65616e6c793a20626174636820746f6f206c617267650000000000000000005f82015250565b5f613541601783612a90565b915061354c8261350d565b602082019050919050565b5f6020820190508181035f83015261356e81613535565b9050919050565b7f4e487b71000000000000000000000000000000000000000000000000000000005f52603260045260245ffd5b7f4d65616e6c793a206d696e7420746f20746865207a65726f20616464726573735f82015250565b5f6135d6602083612a90565b91506135e1826135a2565b602082019050919050565b5f6020820190508181035f830152613603816135ca565b9050919050565b7f4d65616e6c793a2065786365656473206d61784d696e745065725478000000005f82015250565b5f61363e601c83612a90565b91506136498261360a565b602082019050919050565b5f6020820190508181035f83015261366b81613632565b9050919050565b7f6d616e75616c206275726e0000000000000000000000000000000000000000005f82015250565b5f6136a6600b83612a90565b91506136b182613672565b602082019050919050565b5f6040820190506136cf5f830184612d81565b81810360208301526136e08161369a565b905092915050565b7f4d65616e6c793a206c696d6974206d757374206265203e2030000000000000005f82015250565b5f61371c601983612a90565b9150613727826136e8565b602082019050919050565b5f6020820190508181035f83015261374981613710565b9050919050565b5f6040820190506137635f830185612d81565b6137706020830184612d81565b9392505050565b7f6d616e75616c206275726e46726f6d00000000000000000000000000000000005f82015250565b5f6137ab600f83612a90565b91506137b682613777565b602082019050919050565b5f6040820190506137d45f830184612d81565b81810360208301526137e58161379f565b905092915050565b7f4d65616e6c793a206d696e74657220697320746865207a65726f2061646472655f8201527f7373000000000000000000000000000000000000000000000000000000000000602082015250565b5f613847602283612a90565b9150613852826137ed565b604082019050919050565b5f6020820190508181035f8301526138748161383b565b9050919050565b7f4d65616e6c793a20616d6f756e742065786365656473206d61784d696e7450655f8201527f7254780000000000000000000000000000000000000000000000000000000000602082015250565b5f6138d5602383612a90565b91506138e08261387b565b604082019050919050565b5f6020820190508181035f830152613902816138c9565b9050919050565b5f60c08201905061391c5f830189612e57565b61392960208301886130a6565b61393660408301876130a6565b6139436060830186612d81565b6139506080830185612d81565b61395d60a0830184612d81565b979650505050505050565b5f60408201905061397b5f8301856130a6565b61398860208301846130a6565b9392505050565b7f4d65616e6c793a207472616e736665722066726f6d20746865207a65726f20615f8201527f6464726573730000000000000000000000000000000000000000000000000000602082015250565b5f6139e9602683612a90565b91506139f48261398f565b604082019050919050565b5f6020820190508181035f830152613a16816139dd565b9050919050565b7f4d65616e6c793a207472616e7366657220746f20746865207a65726f206164645f8201527f7265737300000000000000000000000000000000000000000000000000000000602082015250565b5f613a77602483612a90565b9150613a8282613a1d565b604082019050919050565b5f6020820190508181035f830152613aa481613a6b565b9050919050565b7f4d65616e6c793a207472656173757279206973207a65726f20616464726573735f82015250565b5f613adf602083612a90565b9150613aea82613aab565b602082019050919050565b5f6020820190508181035f830152613b0c81613ad3565b9050919050565b5f606082019050613b265f8301866130a6565b613b336020830185612d81565b613b406040830184612d81565b949350505050565b5f604082019050613b5b5f8301856130a6565b613b686020830184612e57565b9392505050565b5f60a082019050613b825f830188612e57565b613b8f6020830187612e57565b613b9c6040830186612e57565b613ba96060830185612d81565b613bb660808301846130a6565b9695505050505050565b5f608082019050613bd35f830187612e57565b613be06020830186612ef4565b613bed6040830185612e57565b613bfa6060830184612e57565b95945050505050565b7f4e487b71000000000000000000000000000000000000000000000000000000005f52602160045260245ffd5b7f4e487b71000000000000000000000000000000000000000000000000000000005f52601160045260245ffd5b5f613c6782612b30565b9150613c7283612b30565b9250828201905080821115613c8a57613c89613c30565b5b9291505056fea2646970667358221220b035579844ccae9e972224e866149f445dd1d2f3b569434f59a934252ed0f02864736f6c63430008180033",
  "linkReferences": {},
  "deployedLinkReferences": {}
}